{
  "contractName": "Exchange",
  "abi": [
    {
      "inputs": [],
      "stateMutability": "nonpayable",
      "type": "constructor"
    },
    {
      "anonymous": false,
      "inputs": [
        {
          "indexed": false,
          "internalType": "uint256",
          "name": "listingId",
          "type": "uint256"
        },
        {
          "indexed": false,
          "internalType": "address",
          "name": "tokenAddress",
          "type": "address"
        },
        {
          "indexed": false,
          "internalType": "uint256",
          "name": "tokenId",
          "type": "uint256"
        },
        {
          "indexed": false,
          "internalType": "uint256",
          "name": "value",
          "type": "uint256"
        },
        {
          "indexed": false,
          "internalType": "uint256",
          "name": "price",
          "type": "uint256"
        },
        {
          "indexed": false,
          "internalType": "address",
          "name": "seller",
          "type": "address"
        }
      ],
      "name": "Cancelled",
      "type": "event"
    },
    {
      "anonymous": false,
      "inputs": [
        {
          "indexed": false,
          "internalType": "uint256",
          "name": "listingId",
          "type": "uint256"
        },
        {
          "indexed": false,
          "internalType": "address",
          "name": "tokenAddress",
          "type": "address"
        },
        {
          "indexed": false,
          "internalType": "uint256",
          "name": "tokenId",
          "type": "uint256"
        },
        {
          "indexed": false,
          "internalType": "uint256",
          "name": "value",
          "type": "uint256"
        },
        {
          "indexed": false,
          "internalType": "uint256",
          "name": "price",
          "type": "uint256"
        },
        {
          "indexed": false,
          "internalType": "address",
          "name": "seller",
          "type": "address"
        }
      ],
      "name": "NewListing",
      "type": "event"
    },
    {
      "anonymous": false,
      "inputs": [
        {
          "indexed": true,
          "internalType": "address",
          "name": "previousOwner",
          "type": "address"
        },
        {
          "indexed": true,
          "internalType": "address",
          "name": "newOwner",
          "type": "address"
        }
      ],
      "name": "OwnershipTransferred",
      "type": "event"
    },
    {
      "anonymous": false,
      "inputs": [
        {
          "indexed": false,
          "internalType": "uint256",
          "name": "listingId",
          "type": "uint256"
        },
        {
          "indexed": false,
          "internalType": "address",
          "name": "tokenAddress",
          "type": "address"
        },
        {
          "indexed": false,
          "internalType": "uint256",
          "name": "tokenId",
          "type": "uint256"
        },
        {
          "indexed": false,
          "internalType": "uint256",
          "name": "value",
          "type": "uint256"
        },
        {
          "indexed": false,
          "internalType": "uint256",
          "name": "price",
          "type": "uint256"
        },
        {
          "indexed": false,
          "internalType": "address",
          "name": "from",
          "type": "address"
        },
        {
          "indexed": false,
          "internalType": "address",
          "name": "to",
          "type": "address"
        }
      ],
      "name": "Sale",
      "type": "event"
    },
    {
      "inputs": [
        {
          "internalType": "uint256",
          "name": "",
          "type": "uint256"
        }
      ],
      "name": "cancelled",
      "outputs": [
        {
          "internalType": "bool",
          "name": "",
          "type": "bool"
        }
      ],
      "stateMutability": "view",
      "type": "function",
      "constant": true
    },
    {
      "inputs": [
        {
          "internalType": "uint256",
          "name": "",
          "type": "uint256"
        }
      ],
      "name": "listings",
      "outputs": [
        {
          "internalType": "uint256",
          "name": "listingId",
          "type": "uint256"
        },
        {
          "internalType": "address",
          "name": "tokenAddress",
          "type": "address"
        },
        {
          "internalType": "uint256",
          "name": "tokenId",
          "type": "uint256"
        },
        {
          "internalType": "uint256",
          "name": "value",
          "type": "uint256"
        },
        {
          "internalType": "uint256",
          "name": "price",
          "type": "uint256"
        },
        {
          "internalType": "address",
          "name": "seller",
          "type": "address"
        }
      ],
      "stateMutability": "view",
      "type": "function",
      "constant": true
    },
    {
      "inputs": [],
      "name": "owner",
      "outputs": [
        {
          "internalType": "address",
          "name": "",
          "type": "address"
        }
      ],
      "stateMutability": "view",
      "type": "function",
      "constant": true
    },
    {
      "inputs": [],
      "name": "renounceOwnership",
      "outputs": [],
      "stateMutability": "nonpayable",
      "type": "function"
    },
    {
      "inputs": [
        {
          "internalType": "uint256",
          "name": "",
          "type": "uint256"
        }
      ],
      "name": "sales",
      "outputs": [
        {
          "internalType": "bool",
          "name": "",
          "type": "bool"
        }
      ],
      "stateMutability": "view",
      "type": "function",
      "constant": true
    },
    {
      "inputs": [
        {
          "internalType": "address",
          "name": "newOwner",
          "type": "address"
        }
      ],
      "name": "transferOwnership",
      "outputs": [],
      "stateMutability": "nonpayable",
      "type": "function"
    },
    {
      "inputs": [
        {
          "internalType": "address",
          "name": "_tokenAddress",
          "type": "address"
        },
        {
          "internalType": "uint256",
          "name": "_tokenId",
          "type": "uint256"
        },
        {
          "internalType": "uint256",
          "name": "_value",
          "type": "uint256"
        },
        {
          "internalType": "uint256",
          "name": "_price",
          "type": "uint256"
        }
      ],
      "name": "createListing",
      "outputs": [],
      "stateMutability": "nonpayable",
      "type": "function"
    },
    {
      "inputs": [
        {
          "internalType": "uint256",
          "name": "_listingId",
          "type": "uint256"
        }
      ],
      "name": "cancelListing",
      "outputs": [],
      "stateMutability": "nonpayable",
      "type": "function"
    },
    {
      "inputs": [
        {
          "internalType": "uint256",
          "name": "_listingId",
          "type": "uint256"
        }
      ],
      "name": "purchaseListing",
      "outputs": [],
      "stateMutability": "payable",
      "type": "function",
      "payable": true
    }
  ],
  "bytecode": "0x608060405234801561001057600080fd5b5061002d61002261003260201b60201c565b61003a60201b60201c565b6100fe565b600033905090565b60008060009054906101000a900473ffffffffffffffffffffffffffffffffffffffff169050816000806101000a81548173ffffffffffffffffffffffffffffffffffffffff021916908373ffffffffffffffffffffffffffffffffffffffff1602179055508173ffffffffffffffffffffffffffffffffffffffff168173ffffffffffffffffffffffffffffffffffffffff167f8be0079c531659141344cd1fd0a4f28419497f9722a3daafe3b4186f6b6457e060405160405180910390a35050565b6119af8061010d6000396000f3fe6080604052600436106100865760003560e01c80638da5cb5b116100595780638da5cb5b14610110578063b5f522f71461013b578063de74e57b14610178578063e050be57146101ba578063f2fde38b146101f757610086565b8063169d5a7d1461008b578063305a67a8146100a757806370cdec3d146100d0578063715018a6146100f9575b600080fd5b6100a560048036038101906100a09190611220565b610220565b005b3480156100b357600080fd5b506100ce60048036038101906100c99190611220565b6108ab565b005b3480156100dc57600080fd5b506100f760048036038101906100f291906111bd565b610b51565b005b34801561010557600080fd5b5061010e610daf565b005b34801561011c57600080fd5b50610125610e37565b604051610132919061157a565b60405180910390f35b34801561014757600080fd5b50610162600480360381019061015d9190611220565b610e60565b60405161016f9190611616565b60405180910390f35b34801561018457600080fd5b5061019f600480360381019061019a9190611220565b610e80565b6040516101b19695949392919061177a565b60405180910390f35b3480156101c657600080fd5b506101e160048036038101906101dc9190611220565b610efc565b6040516101ee9190611616565b60405180910390f35b34801561020357600080fd5b5061021e60048036038101906102199190611158565b610f1c565b005b6000600260008381526020019081526020016000206040518060c0016040529081600082015481526020016001820160009054906101000a900473ffffffffffffffffffffffffffffffffffffffff1673ffffffffffffffffffffffffffffffffffffffff1673ffffffffffffffffffffffffffffffffffffffff1681526020016002820154815260200160038201548152602001600482015481526020016005820160009054906101000a900473ffffffffffffffffffffffffffffffffffffffff1673ffffffffffffffffffffffffffffffffffffffff1673ffffffffffffffffffffffffffffffffffffffff168152505090508181600001511461035c576040517f08c379a0000000000000000000000000000000000000000000000000000000008152600401610353906116ba565b60405180910390fd5b3373ffffffffffffffffffffffffffffffffffffffff168160a0015173ffffffffffffffffffffffffffffffffffffffff1614156103cf576040517f08c379a00000000000000000000000000000000000000000000000000000000081526004016103c69061173a565b60405180910390fd5b600015156003600084815260200190815260200160002060009054906101000a900460ff16151514610436576040517f08c379a000000000000000000000000000000000000000000000000000000000815260040161042d906116da565b60405180910390fd5b600015156004600084815260200190815260200160002060009054906101000a900460ff1615151461049d576040517f08c379a00000000000000000000000000000000000000000000000000000000081526004016104949061171a565b60405180910390fd5b6000816020015173ffffffffffffffffffffffffffffffffffffffff1662fdd58e8360a0015184604001516040518363ffffffff1660e01b81526004016104e59291906115ed565b60206040518083038186803b1580156104fd57600080fd5b505afa158015610511573d6000803e3d6000fd5b505050506040513d601f19601f820116820180604052508101906105359190611249565b1015610576576040517f08c379a000000000000000000000000000000000000000000000000000000000815260040161056d9061175a565b60405180910390fd5b8060600151816020015173ffffffffffffffffffffffffffffffffffffffff1662fdd58e8360a0015184604001516040518363ffffffff1660e01b81526004016105c19291906115ed565b60206040518083038186803b1580156105d957600080fd5b505afa1580156105ed573d6000803e3d6000fd5b505050506040513d601f19601f820116820180604052508101906106119190611249565b1015610652576040517f08c379a00000000000000000000000000000000000000000000000000000000081526004016106499061167a565b60405180910390fd5b600080826020015173ffffffffffffffffffffffffffffffffffffffff16632a55205a600085608001516040518363ffffffff1660e01b8152600401610699929190611631565b604080518083038186803b1580156106b057600080fd5b505afa1580156106c4573d6000803e3d6000fd5b505050506040513d601f19601f820116820180604052508101906106e89190611181565b915091508083608001516106fc919061186c565b341461070757600080fd5b8260a0015173ffffffffffffffffffffffffffffffffffffffff166108fc84608001519081150290604051600060405180830381858888f19350505050158015610755573d6000803e3d6000fd5b508173ffffffffffffffffffffffffffffffffffffffff166108fc829081150290604051600060405180830381858888f1935050505015801561079c573d6000803e3d6000fd5b50826020015173ffffffffffffffffffffffffffffffffffffffff1663f242432a8460a0015133866040015187606001516040518563ffffffff1660e01b81526004016107ec9493929190611595565b600060405180830381600087803b15801561080657600080fd5b505af115801561081a573d6000803e3d6000fd5b5050505060016004600086815260200190815260200160002060006101000a81548160ff0219169083151502179055507f6106cdb4e8dda50240590074d1b2d140e47c6a3ab6f69e0d7ac1bae3a9f75a0b836000015184602001518560400151866060015187608001518860a001513360405161089d97969594939291906117db565b60405180910390a150505050565b6000600260008381526020019081526020016000206040518060c0016040529081600082015481526020016001820160009054906101000a900473ffffffffffffffffffffffffffffffffffffffff1673ffffffffffffffffffffffffffffffffffffffff1673ffffffffffffffffffffffffffffffffffffffff1681526020016002820154815260200160038201548152602001600482015481526020016005820160009054906101000a900473ffffffffffffffffffffffffffffffffffffffff1673ffffffffffffffffffffffffffffffffffffffff1673ffffffffffffffffffffffffffffffffffffffff16815250509050818160000151146109e7576040517f08c379a00000000000000000000000000000000000000000000000000000000081526004016109de906116ba565b60405180910390fd5b3373ffffffffffffffffffffffffffffffffffffffff168160a0015173ffffffffffffffffffffffffffffffffffffffff1614610a59576040517f08c379a0000000000000000000000000000000000000000000000000000000008152600401610a509061173a565b60405180910390fd5b60001515600360008360000151815260200190815260200160002060009054906101000a900460ff16151514610ac4576040517f08c379a0000000000000000000000000000000000000000000000000000000008152600401610abb906116da565b60405180910390fd5b6001600360008360000151815260200190815260200160002060006101000a81548160ff0219169083151502179055507f2f656a731837632fb3a23d811785a28aea35ea57152d7dabe8128a22b90e37e8816000015182602001518360400151846060015185608001518660a00151604051610b459695949392919061177a565b60405180910390a15050565b818473ffffffffffffffffffffffffffffffffffffffff1662fdd58e33866040518363ffffffff1660e01b8152600401610b8c9291906115ed565b60206040518083038186803b158015610ba457600080fd5b505afa158015610bb8573d6000803e3d6000fd5b505050506040513d601f19601f82011682018060405250810190610bdc9190611249565b1015610be757600080fd5b60008111610c2a576040517f08c379a0000000000000000000000000000000000000000000000000000000008152600401610c219061165a565b60405180910390fd5b610c346001611014565b6000610c40600161102a565b90506040518060c001604052808281526020018673ffffffffffffffffffffffffffffffffffffffff1681526020018581526020018481526020018381526020013373ffffffffffffffffffffffffffffffffffffffff16815250600260008381526020019081526020016000206000820151816000015560208201518160010160006101000a81548173ffffffffffffffffffffffffffffffffffffffff021916908373ffffffffffffffffffffffffffffffffffffffff16021790555060408201518160020155606082015181600301556080820151816004015560a08201518160050160006101000a81548173ffffffffffffffffffffffffffffffffffffffff021916908373ffffffffffffffffffffffffffffffffffffffff1602179055509050507fe3b711ba0140c72ca99b55cee80f7d1b80b00349cc92ce42d35388969e57cd08818686868633604051610da09695949392919061177a565b60405180910390a15050505050565b610db7611038565b73ffffffffffffffffffffffffffffffffffffffff16610dd5610e37565b73ffffffffffffffffffffffffffffffffffffffff1614610e2b576040517f08c379a0000000000000000000000000000000000000000000000000000000008152600401610e22906116fa565b60405180910390fd5b610e356000611040565b565b60008060009054906101000a900473ffffffffffffffffffffffffffffffffffffffff16905090565b60046020528060005260406000206000915054906101000a900460ff1681565b60026020528060005260406000206000915090508060000154908060010160009054906101000a900473ffffffffffffffffffffffffffffffffffffffff16908060020154908060030154908060040154908060050160009054906101000a900473ffffffffffffffffffffffffffffffffffffffff16905086565b60036020528060005260406000206000915054906101000a900460ff1681565b610f24611038565b73ffffffffffffffffffffffffffffffffffffffff16610f42610e37565b73ffffffffffffffffffffffffffffffffffffffff1614610f98576040517f08c379a0000000000000000000000000000000000000000000000000000000008152600401610f8f906116fa565b60405180910390fd5b600073ffffffffffffffffffffffffffffffffffffffff168173ffffffffffffffffffffffffffffffffffffffff161415611008576040517f08c379a0000000000000000000000000000000000000000000000000000000008152600401610fff9061169a565b60405180910390fd5b61101181611040565b50565b6001816000016000828254019250508190555050565b600081600001549050919050565b600033905090565b60008060009054906101000a900473ffffffffffffffffffffffffffffffffffffffff169050816000806101000a81548173ffffffffffffffffffffffffffffffffffffffff021916908373ffffffffffffffffffffffffffffffffffffffff1602179055508173ffffffffffffffffffffffffffffffffffffffff168173ffffffffffffffffffffffffffffffffffffffff167f8be0079c531659141344cd1fd0a4f28419497f9722a3daafe3b4186f6b6457e060405160405180910390a35050565b6000813590506111138161194b565b92915050565b6000815190506111288161194b565b92915050565b60008135905061113d81611962565b92915050565b60008151905061115281611962565b92915050565b60006020828403121561116a57600080fd5b600061117884828501611104565b91505092915050565b6000806040838503121561119457600080fd5b60006111a285828601611119565b92505060206111b385828601611143565b9150509250929050565b600080600080608085870312156111d357600080fd5b60006111e187828801611104565b94505060206111f28782880161112e565b93505060406112038782880161112e565b92505060606112148782880161112e565b91505092959194509250565b60006020828403121561123257600080fd5b60006112408482850161112e565b91505092915050565b60006020828403121561125b57600080fd5b600061126984828501611143565b91505092915050565b61127b816118c2565b82525050565b61128a816118d4565b82525050565b6112998161190a565b82525050565b60006112ac60208361185b565b91507f7072696365206d7573742062652067726561746572207468616e2030207765696000830152602082019050919050565b60006112ec60268361185b565b91507f73656c6c657220646f6573206e6f74206861766520656e6f756768206f66207460008301527f6f6b656e496400000000000000000000000000000000000000000000000000006020830152604082019050919050565b600061135260268361185b565b91507f4f776e61626c653a206e6577206f776e657220697320746865207a65726f206160008301527f64647265737300000000000000000000000000000000000000000000000000006020830152604082019050919050565b60006113b860168361185b565b91507f6c697374696e674964206973206e6f742076616c6964000000000000000000006000830152602082019050919050565b60006113f860198361185b565b91507f6c697374696e6720616c72656164792063616e63656c6c6564000000000000006000830152602082019050919050565b600061143860038361184a565b91507f30783000000000000000000000000000000000000000000000000000000000006000830152602082019050919050565b600061147860208361185b565b91507f4f776e61626c653a2063616c6c6572206973206e6f7420746865206f776e65726000830152602082019050919050565b60006114b860148361185b565b91507f6c697374696e6720616c726561647920736f6c640000000000000000000000006000830152602082019050919050565b60006114f8601b8361185b565b91507f73656e64657220616c7265616479206f776e7320746f6b656e496400000000006000830152602082019050919050565b600061153860178361185b565b91507f73656c6c6572206861732030206f6620746f6b656e49640000000000000000006000830152602082019050919050565b61157481611900565b82525050565b600060208201905061158f6000830184611272565b92915050565b600060a0820190506115aa6000830187611272565b6115b76020830186611272565b6115c4604083018561156b565b6115d1606083018461156b565b81810360808301526115e28161142b565b905095945050505050565b60006040820190506116026000830185611272565b61160f602083018461156b565b9392505050565b600060208201905061162b6000830184611281565b92915050565b60006040820190506116466000830185611290565b611653602083018461156b565b9392505050565b600060208201905081810360008301526116738161129f565b9050919050565b60006020820190508181036000830152611693816112df565b9050919050565b600060208201905081810360008301526116b381611345565b9050919050565b600060208201905081810360008301526116d3816113ab565b9050919050565b600060208201905081810360008301526116f3816113eb565b9050919050565b600060208201905081810360008301526117138161146b565b9050919050565b60006020820190508181036000830152611733816114ab565b9050919050565b60006020820190508181036000830152611753816114eb565b9050919050565b600060208201905081810360008301526117738161152b565b9050919050565b600060c08201905061178f600083018961156b565b61179c6020830188611272565b6117a9604083018761156b565b6117b6606083018661156b565b6117c3608083018561156b565b6117d060a0830184611272565b979650505050505050565b600060e0820190506117f0600083018a61156b565b6117fd6020830189611272565b61180a604083018861156b565b611817606083018761156b565b611824608083018661156b565b61183160a0830185611272565b61183e60c0830184611272565b98975050505050505050565b600082825260208201905092915050565b600082825260208201905092915050565b600061187782611900565b915061188283611900565b9250827fffffffffffffffffffffffffffffffffffffffffffffffffffffffffffffffff038211156118b7576118b661191c565b5b828201905092915050565b60006118cd826118e0565b9050919050565b60008115159050919050565b600073ffffffffffffffffffffffffffffffffffffffff82169050919050565b6000819050919050565b600061191582611900565b9050919050565b7f4e487b7100000000000000000000000000000000000000000000000000000000600052601160045260246000fd5b611954816118c2565b811461195f57600080fd5b50565b61196b81611900565b811461197657600080fd5b5056fea2646970667358221220c25c7ead0cd1fe80d0706041d1cd5a2fce25900579690a21308b42c4fc2f7bb964736f6c63430008000033",
  "immutableReferences": {},
  "source": "// SPDX-License-Identifier: MIT\npragma solidity >=0.4.22 <0.9.0;\n\nimport \"@openzeppelin/contracts/access/Ownable.sol\";\nimport \"@openzeppelin/contracts/utils/Counters.sol\";\nimport \"./Token.sol\";\nimport \"./ERC2981Collection.sol\";\n\ncontract Exchange is Ownable {\n\n    using Counters for Counters.Counter;\n    Counters.Counter private _listingIds;\n\n    struct Listing {\n        uint256 listingId;\n        address tokenAddress;\n        uint256 tokenId;\n        uint256 value;\n        uint256 price;\n        address seller;\n    }\n\n    mapping(uint256 => Listing) public listings;\n    mapping(uint256 => bool) public cancelled;\n    mapping(uint256 => bool) public sales;\n\n    event NewListing(uint256 listingId, address tokenAddress, uint256 tokenId, uint256 value, uint256 price, address seller);\n    event Cancelled(uint256 listingId, address tokenAddress, uint256 tokenId, uint256 value, uint256 price, address seller);\n    event Sale(uint256 listingId, address tokenAddress, uint256 tokenId, uint256 value, uint256 price, address from, address to);\n\n    constructor () {}\n\n    function createListing(address _tokenAddress, uint256 _tokenId, uint256 _value, uint256 _price) public {\n        require(Token(_tokenAddress).balanceOf(msg.sender, _tokenId) >= _value);\n        require(_price > 0, 'price must be greater than 0 wei');\n        \n        _listingIds.increment();\n        uint256 _listingId = _listingIds.current();\n\n        listings[_listingId] = Listing(_listingId, _tokenAddress, _tokenId, _value, _price, msg.sender);\n\n        emit NewListing(_listingId, _tokenAddress, _tokenId, _value, _price, msg.sender);\n    }\n\n    function cancelListing(uint256 _listingId) public {\n      Listing memory listing = listings[_listingId];\n\n      require(listing.listingId == _listingId, 'listingId is not valid');\n      // remove this? want to buy more?\n      require(listing.seller == msg.sender, 'sender already owns tokenId');\n      require(cancelled[listing.listingId] == false, 'listing already cancelled');\n\n      cancelled[listing.listingId] = true;\n\n      emit Cancelled(listing.listingId, listing.tokenAddress, listing.tokenId, listing.value, listing.price, listing.seller);\n    }\n\n    function purchaseListing(uint256 _listingId) public payable {\n      Listing memory listing = listings[_listingId];\n\n      require(listing.listingId == _listingId, 'listingId is not valid');\n      // remove this? want to buy more?\n      require(listing.seller != msg.sender, 'sender already owns tokenId');\n      require(cancelled[_listingId] == false, 'listing already cancelled');\n      require(sales[_listingId] == false, 'listing already sold');\n      require(Token(listing.tokenAddress).balanceOf(listing.seller, listing.tokenId) >= 0, 'seller has 0 of tokenId');\n      require(Token(listing.tokenAddress).balanceOf(listing.seller, listing.tokenId) >= listing.value, 'seller does not have enough of tokenId');\n\n      (address receiver, uint256 royaltyAmount) = Token(listing.tokenAddress).royaltyInfo(0, listing.price);\n      require(msg.value == (listing.price + royaltyAmount));\n\n      payable(listing.seller).transfer(listing.price);\n      payable(receiver).transfer(royaltyAmount);\n      \n      Token(listing.tokenAddress).safeTransferFrom(listing.seller, msg.sender, listing.tokenId, listing.value, '0x0');\n\n      sales[_listingId] = true;\n\n      emit Sale(listing.listingId, listing.tokenAddress, listing.tokenId, listing.value, listing.price, listing.seller, msg.sender);\n    }\n}",
  "sourcePath": "/Users/andrewmlevy/Documents/blockchain/4_portfolio_projects/mozis-app/src/contracts/Exchange.sol",
  "compiler": {
    "name": "solc",
    "version": "0.8.0+commit.c7dfd78e.Emscripten.clang"
  },
  "schemaVersion": "3.4.3",
  "updatedAt": "2021-11-26T17:47:39.425Z",
  "networkType": "ethereum",
  "devdoc": {
    "kind": "dev",
    "methods": {
      "owner()": {
        "details": "Returns the address of the current owner."
      },
      "renounceOwnership()": {
        "details": "Leaves the contract without owner. It will not be possible to call `onlyOwner` functions anymore. Can only be called by the current owner. NOTE: Renouncing ownership will leave the contract without an owner, thereby removing any functionality that is only available to the owner."
      },
      "transferOwnership(address)": {
        "details": "Transfers ownership of the contract to a new account (`newOwner`). Can only be called by the current owner."
      }
    },
    "version": 1
  },
  "userdoc": {
    "kind": "user",
    "methods": {},
    "version": 1
  }
}