{
  "contractName": "RoyaltyPayments",
  "abi": [
    {
      "inputs": [
        {
          "internalType": "address[]",
          "name": "_payees",
          "type": "address[]"
        },
        {
          "internalType": "uint256[]",
          "name": "_shares",
          "type": "uint256[]"
        }
      ],
      "stateMutability": "payable",
      "type": "constructor"
    },
    {
      "anonymous": false,
      "inputs": [
        {
          "indexed": true,
          "internalType": "contract IERC20",
          "name": "token",
          "type": "address"
        },
        {
          "indexed": false,
          "internalType": "address",
          "name": "to",
          "type": "address"
        },
        {
          "indexed": false,
          "internalType": "uint256",
          "name": "amount",
          "type": "uint256"
        }
      ],
      "name": "ERC20PaymentReleased",
      "type": "event"
    },
    {
      "anonymous": false,
      "inputs": [
        {
          "indexed": false,
          "internalType": "address",
          "name": "account",
          "type": "address"
        },
        {
          "indexed": false,
          "internalType": "uint256",
          "name": "shares",
          "type": "uint256"
        }
      ],
      "name": "PayeeAdded",
      "type": "event"
    },
    {
      "anonymous": false,
      "inputs": [
        {
          "indexed": false,
          "internalType": "address",
          "name": "from",
          "type": "address"
        },
        {
          "indexed": false,
          "internalType": "uint256",
          "name": "amount",
          "type": "uint256"
        }
      ],
      "name": "PaymentReceived",
      "type": "event"
    },
    {
      "anonymous": false,
      "inputs": [
        {
          "indexed": false,
          "internalType": "address",
          "name": "to",
          "type": "address"
        },
        {
          "indexed": false,
          "internalType": "uint256",
          "name": "amount",
          "type": "uint256"
        }
      ],
      "name": "PaymentReleased",
      "type": "event"
    },
    {
      "inputs": [
        {
          "internalType": "uint256",
          "name": "index",
          "type": "uint256"
        }
      ],
      "name": "payee",
      "outputs": [
        {
          "internalType": "address",
          "name": "",
          "type": "address"
        }
      ],
      "stateMutability": "view",
      "type": "function"
    },
    {
      "inputs": [
        {
          "internalType": "address payable",
          "name": "account",
          "type": "address"
        }
      ],
      "name": "release",
      "outputs": [],
      "stateMutability": "nonpayable",
      "type": "function"
    },
    {
      "inputs": [
        {
          "internalType": "contract IERC20",
          "name": "token",
          "type": "address"
        },
        {
          "internalType": "address",
          "name": "account",
          "type": "address"
        }
      ],
      "name": "release",
      "outputs": [],
      "stateMutability": "nonpayable",
      "type": "function"
    },
    {
      "inputs": [
        {
          "internalType": "contract IERC20",
          "name": "token",
          "type": "address"
        },
        {
          "internalType": "address",
          "name": "account",
          "type": "address"
        }
      ],
      "name": "released",
      "outputs": [
        {
          "internalType": "uint256",
          "name": "",
          "type": "uint256"
        }
      ],
      "stateMutability": "view",
      "type": "function"
    },
    {
      "inputs": [
        {
          "internalType": "address",
          "name": "account",
          "type": "address"
        }
      ],
      "name": "released",
      "outputs": [
        {
          "internalType": "uint256",
          "name": "",
          "type": "uint256"
        }
      ],
      "stateMutability": "view",
      "type": "function"
    },
    {
      "inputs": [
        {
          "internalType": "address",
          "name": "account",
          "type": "address"
        }
      ],
      "name": "shares",
      "outputs": [
        {
          "internalType": "uint256",
          "name": "",
          "type": "uint256"
        }
      ],
      "stateMutability": "view",
      "type": "function"
    },
    {
      "inputs": [
        {
          "internalType": "contract IERC20",
          "name": "token",
          "type": "address"
        }
      ],
      "name": "totalReleased",
      "outputs": [
        {
          "internalType": "uint256",
          "name": "",
          "type": "uint256"
        }
      ],
      "stateMutability": "view",
      "type": "function"
    },
    {
      "inputs": [],
      "name": "totalReleased",
      "outputs": [
        {
          "internalType": "uint256",
          "name": "",
          "type": "uint256"
        }
      ],
      "stateMutability": "view",
      "type": "function"
    },
    {
      "inputs": [],
      "name": "totalShares",
      "outputs": [
        {
          "internalType": "uint256",
          "name": "",
          "type": "uint256"
        }
      ],
      "stateMutability": "view",
      "type": "function"
    },
    {
      "stateMutability": "payable",
      "type": "receive"
    }
  ],
  "bytecode": "0x6080604052604051620021a8380380620021a8833981810160405281019062000029919062000527565b8181805182511462000072576040517f08c379a00000000000000000000000000000000000000000000000000000000081526004016200006990620007c7565b60405180910390fd5b6000825111620000b9576040517f08c379a0000000000000000000000000000000000000000000000000000000008152600401620000b0906200080b565b60405180910390fd5b60005b825181101562000170576200015a83828151811062000104577f4e487b7100000000000000000000000000000000000000000000000000000000600052603260045260246000fd5b602002602001015183838151811062000146577f4e487b7100000000000000000000000000000000000000000000000000000000600052603260045260246000fd5b60200260200101516200017b60201b60201c565b808062000167906200098d565b915050620000bc565b505050505062000a6d565b600073ffffffffffffffffffffffffffffffffffffffff168273ffffffffffffffffffffffffffffffffffffffff161415620001ee576040517f08c379a0000000000000000000000000000000000000000000000000000000008152600401620001e590620007a5565b60405180910390fd5b6000811162000234576040517f08c379a00000000000000000000000000000000000000000000000000000000081526004016200022b906200082d565b60405180910390fd5b6000600260008473ffffffffffffffffffffffffffffffffffffffff1673ffffffffffffffffffffffffffffffffffffffff1681526020019081526020016000205414620002b9576040517f08c379a0000000000000000000000000000000000000000000000000000000008152600401620002b090620007e9565b60405180910390fd5b6004829080600181540180825580915050600190039060005260206000200160009091909190916101000a81548173ffffffffffffffffffffffffffffffffffffffff021916908373ffffffffffffffffffffffffffffffffffffffff16021790555080600260008473ffffffffffffffffffffffffffffffffffffffff1673ffffffffffffffffffffffffffffffffffffffff1681526020019081526020016000208190555080600054620003709190620008f2565b6000819055507f40c340f65e17194d14ddddb073d3c9f888e3cb52b5aae0c6c7706b4fbc905fac8282604051620003a992919062000778565b60405180910390a15050565b6000620003cc620003c68462000883565b6200084f565b90508083825260208201905082856020860282011115620003ec57600080fd5b60005b858110156200042057816200040588826200049f565b845260208401935060208301925050600181019050620003ef565b5050509392505050565b6000620004416200043b84620008b2565b6200084f565b905080838252602082019050828560208602820111156200046157600080fd5b60005b858110156200049557816200047a888262000510565b84526020840193506020830192505060018101905062000464565b5050509392505050565b600081519050620004b08162000a39565b92915050565b600082601f830112620004c857600080fd5b8151620004da848260208601620003b5565b91505092915050565b600082601f830112620004f557600080fd5b8151620005078482602086016200042a565b91505092915050565b600081519050620005218162000a53565b92915050565b600080604083850312156200053b57600080fd5b600083015167ffffffffffffffff8111156200055657600080fd5b6200056485828601620004b6565b925050602083015167ffffffffffffffff8111156200058257600080fd5b6200059085828601620004e3565b9150509250929050565b620005a5816200094f565b82525050565b6000620005ba602c83620008e1565b91507f5061796d656e7453706c69747465723a206163636f756e74206973207468652060008301527f7a65726f206164647265737300000000000000000000000000000000000000006020830152604082019050919050565b600062000622603283620008e1565b91507f5061796d656e7453706c69747465723a2070617965657320616e64207368617260008301527f6573206c656e677468206d69736d6174636800000000000000000000000000006020830152604082019050919050565b60006200068a602b83620008e1565b91507f5061796d656e7453706c69747465723a206163636f756e7420616c726561647960008301527f20686173207368617265730000000000000000000000000000000000000000006020830152604082019050919050565b6000620006f2601a83620008e1565b91507f5061796d656e7453706c69747465723a206e6f207061796565730000000000006000830152602082019050919050565b600062000734601d83620008e1565b91507f5061796d656e7453706c69747465723a207368617265732061726520300000006000830152602082019050919050565b620007728162000983565b82525050565b60006040820190506200078f60008301856200059a565b6200079e602083018462000767565b9392505050565b60006020820190508181036000830152620007c081620005ab565b9050919050565b60006020820190508181036000830152620007e28162000613565b9050919050565b6000602082019050818103600083015262000804816200067b565b9050919050565b600060208201905081810360008301526200082681620006e3565b9050919050565b60006020820190508181036000830152620008488162000725565b9050919050565b6000604051905081810181811067ffffffffffffffff8211171562000879576200087862000a0a565b5b8060405250919050565b600067ffffffffffffffff821115620008a157620008a062000a0a565b5b602082029050602081019050919050565b600067ffffffffffffffff821115620008d057620008cf62000a0a565b5b602082029050602081019050919050565b600082825260208201905092915050565b6000620008ff8262000983565b91506200090c8362000983565b9250827fffffffffffffffffffffffffffffffffffffffffffffffffffffffffffffffff03821115620009445762000943620009db565b5b828201905092915050565b60006200095c8262000963565b9050919050565b600073ffffffffffffffffffffffffffffffffffffffff82169050919050565b6000819050919050565b60006200099a8262000983565b91507fffffffffffffffffffffffffffffffffffffffffffffffffffffffffffffffff821415620009d057620009cf620009db565b5b600182019050919050565b7f4e487b7100000000000000000000000000000000000000000000000000000000600052601160045260246000fd5b7f4e487b7100000000000000000000000000000000000000000000000000000000600052604160045260246000fd5b62000a44816200094f565b811462000a5057600080fd5b50565b62000a5e8162000983565b811462000a6a57600080fd5b50565b61172b8062000a7d6000396000f3fe60806040526004361061008a5760003560e01c80638b83209b116100595780638b83209b146101905780639852595c146101cd578063ce7c2ac21461020a578063d79779b214610247578063e33b7de314610284576100d1565b806319165587146100d65780633a98ef39146100ff578063406072a91461012a57806348b7504414610167576100d1565b366100d1577f6ef95f06320e7a25a04a175ca677b7052bdd97131872c2192525a629f51be7706100b86102af565b346040516100c79291906112b1565b60405180910390a1005b600080fd5b3480156100e257600080fd5b506100fd60048036038101906100f89190610e09565b6102b7565b005b34801561010b57600080fd5b50610114610462565b60405161012191906113dc565b60405180910390f35b34801561013657600080fd5b50610151600480360381019061014c9190610e84565b61046b565b60405161015e91906113dc565b60405180910390f35b34801561017357600080fd5b5061018e60048036038101906101899190610e84565b6104f2565b005b34801561019c57600080fd5b506101b760048036038101906101b29190610ec0565b6107ba565b6040516101c4919061126d565b60405180910390f35b3480156101d957600080fd5b506101f460048036038101906101ef9190610de0565b610828565b60405161020191906113dc565b60405180910390f35b34801561021657600080fd5b50610231600480360381019061022c9190610de0565b610871565b60405161023e91906113dc565b60405180910390f35b34801561025357600080fd5b5061026e60048036038101906102699190610e5b565b6108ba565b60405161027b91906113dc565b60405180910390f35b34801561029057600080fd5b50610299610903565b6040516102a691906113dc565b60405180910390f35b600033905090565b6000600260008373ffffffffffffffffffffffffffffffffffffffff1673ffffffffffffffffffffffffffffffffffffffff1681526020019081526020016000205411610339576040517f08c379a0000000000000000000000000000000000000000000000000000000008152600401610330906112fc565b60405180910390fd5b6000610343610903565b4761034e9190611429565b90506000610365838361036086610828565b61090d565b905060008114156103ab576040517f08c379a00000000000000000000000000000000000000000000000000000000081526004016103a29061137c565b60405180910390fd5b80600360008573ffffffffffffffffffffffffffffffffffffffff1673ffffffffffffffffffffffffffffffffffffffff16815260200190815260200160002060008282546103fa9190611429565b9250508190555080600160008282546104139190611429565b92505081905550610424838261097b565b7fdf20fd1e76bc69d672e4814fafb2c449bba3a5369d8359adf9e05e6fde87b0568382604051610455929190611288565b60405180910390a1505050565b60008054905090565b6000600660008473ffffffffffffffffffffffffffffffffffffffff1673ffffffffffffffffffffffffffffffffffffffff16815260200190815260200160002060008373ffffffffffffffffffffffffffffffffffffffff1673ffffffffffffffffffffffffffffffffffffffff16815260200190815260200160002054905092915050565b6000600260008373ffffffffffffffffffffffffffffffffffffffff1673ffffffffffffffffffffffffffffffffffffffff1681526020019081526020016000205411610574576040517f08c379a000000000000000000000000000000000000000000000000000000000815260040161056b906112fc565b60405180910390fd5b600061057f836108ba565b8373ffffffffffffffffffffffffffffffffffffffff166370a08231306040518263ffffffff1660e01b81526004016105b8919061126d565b60206040518083038186803b1580156105d057600080fd5b505afa1580156105e4573d6000803e3d6000fd5b505050506040513d601f19601f820116820180604052508101906106089190610ee9565b6106129190611429565b9050600061062a8383610625878761046b565b61090d565b90506000811415610670576040517f08c379a00000000000000000000000000000000000000000000000000000000081526004016106679061137c565b60405180910390fd5b80600660008673ffffffffffffffffffffffffffffffffffffffff1673ffffffffffffffffffffffffffffffffffffffff16815260200190815260200160002060008573ffffffffffffffffffffffffffffffffffffffff1673ffffffffffffffffffffffffffffffffffffffff16815260200190815260200160002060008282546106fc9190611429565b9250508190555080600560008673ffffffffffffffffffffffffffffffffffffffff1673ffffffffffffffffffffffffffffffffffffffff16815260200190815260200160002060008282546107529190611429565b92505081905550610764848483610a6f565b8373ffffffffffffffffffffffffffffffffffffffff167f3be5b7a71e84ed12875d241991c70855ac5817d847039e17a9d895c1ceb0f18a84836040516107ac9291906112b1565b60405180910390a250505050565b6000600482815481106107f6577f4e487b7100000000000000000000000000000000000000000000000000000000600052603260045260246000fd5b9060005260206000200160009054906101000a900473ffffffffffffffffffffffffffffffffffffffff169050919050565b6000600360008373ffffffffffffffffffffffffffffffffffffffff1673ffffffffffffffffffffffffffffffffffffffff168152602001908152602001600020549050919050565b6000600260008373ffffffffffffffffffffffffffffffffffffffff1673ffffffffffffffffffffffffffffffffffffffff168152602001908152602001600020549050919050565b6000600560008373ffffffffffffffffffffffffffffffffffffffff1673ffffffffffffffffffffffffffffffffffffffff168152602001908152602001600020549050919050565b6000600154905090565b600081600054600260008773ffffffffffffffffffffffffffffffffffffffff1673ffffffffffffffffffffffffffffffffffffffff168152602001908152602001600020548561095e91906114b0565b610968919061147f565b610972919061150a565b90509392505050565b804710156109be576040517f08c379a00000000000000000000000000000000000000000000000000000000081526004016109b59061133c565b60405180910390fd5b60008273ffffffffffffffffffffffffffffffffffffffff16826040516109e490611258565b60006040518083038185875af1925050503d8060008114610a21576040519150601f19603f3d011682016040523d82523d6000602084013e610a26565b606091505b5050905080610a6a576040517f08c379a0000000000000000000000000000000000000000000000000000000008152600401610a619061131c565b60405180910390fd5b505050565b610af08363a9059cbb60e01b8484604051602401610a8e9291906112b1565b604051602081830303815290604052907bffffffffffffffffffffffffffffffffffffffffffffffffffffffff19166020820180517bffffffffffffffffffffffffffffffffffffffffffffffffffffffff8381831617835250505050610af5565b505050565b6000610b57826040518060400160405280602081526020017f5361666545524332303a206c6f772d6c6576656c2063616c6c206661696c65648152508573ffffffffffffffffffffffffffffffffffffffff16610bbc9092919063ffffffff16565b9050600081511115610bb75780806020019051810190610b779190610e32565b610bb6576040517f08c379a0000000000000000000000000000000000000000000000000000000008152600401610bad906113bc565b60405180910390fd5b5b505050565b6060610bcb8484600085610bd4565b90509392505050565b606082471015610c19576040517f08c379a0000000000000000000000000000000000000000000000000000000008152600401610c109061135c565b60405180910390fd5b610c2285610ce8565b610c61576040517f08c379a0000000000000000000000000000000000000000000000000000000008152600401610c589061139c565b60405180910390fd5b6000808673ffffffffffffffffffffffffffffffffffffffff168587604051610c8a9190611241565b60006040518083038185875af1925050503d8060008114610cc7576040519150601f19603f3d011682016040523d82523d6000602084013e610ccc565b606091505b5091509150610cdc828286610cfb565b92505050949350505050565b600080823b905060008111915050919050565b60608315610d0b57829050610d5b565b600083511115610d1e5782518084602001fd5b816040517f08c379a0000000000000000000000000000000000000000000000000000000008152600401610d5291906112da565b60405180910390fd5b9392505050565b600081359050610d7181611682565b92915050565b600081359050610d8681611699565b92915050565b600081519050610d9b816116b0565b92915050565b600081359050610db0816116c7565b92915050565b600081359050610dc5816116de565b92915050565b600081519050610dda816116de565b92915050565b600060208284031215610df257600080fd5b6000610e0084828501610d62565b91505092915050565b600060208284031215610e1b57600080fd5b6000610e2984828501610d77565b91505092915050565b600060208284031215610e4457600080fd5b6000610e5284828501610d8c565b91505092915050565b600060208284031215610e6d57600080fd5b6000610e7b84828501610da1565b91505092915050565b60008060408385031215610e9757600080fd5b6000610ea585828601610da1565b9250506020610eb685828601610d62565b9150509250929050565b600060208284031215610ed257600080fd5b6000610ee084828501610db6565b91505092915050565b600060208284031215610efb57600080fd5b6000610f0984828501610dcb565b91505092915050565b610f1b816115aa565b82525050565b610f2a8161153e565b82525050565b6000610f3b826113f7565b610f45818561140d565b9350610f558185602086016115e0565b80840191505092915050565b6000610f6c82611402565b610f768185611418565b9350610f868185602086016115e0565b610f8f81611671565b840191505092915050565b6000610fa7602683611418565b91507f5061796d656e7453706c69747465723a206163636f756e7420686173206e6f2060008301527f73686172657300000000000000000000000000000000000000000000000000006020830152604082019050919050565b600061100d603a83611418565b91507f416464726573733a20756e61626c6520746f2073656e642076616c75652c207260008301527f6563697069656e74206d617920686176652072657665727465640000000000006020830152604082019050919050565b6000611073601d83611418565b91507f416464726573733a20696e73756666696369656e742062616c616e63650000006000830152602082019050919050565b60006110b3602683611418565b91507f416464726573733a20696e73756666696369656e742062616c616e636520666f60008301527f722063616c6c00000000000000000000000000000000000000000000000000006020830152604082019050919050565b6000611119602b83611418565b91507f5061796d656e7453706c69747465723a206163636f756e74206973206e6f742060008301527f647565207061796d656e740000000000000000000000000000000000000000006020830152604082019050919050565b600061117f60008361140d565b9150600082019050919050565b6000611199601d83611418565b91507f416464726573733a2063616c6c20746f206e6f6e2d636f6e74726163740000006000830152602082019050919050565b60006111d9602a83611418565b91507f5361666545524332303a204552433230206f7065726174696f6e20646964206e60008301527f6f742073756363656564000000000000000000000000000000000000000000006020830152604082019050919050565b61123b816115a0565b82525050565b600061124d8284610f30565b915081905092915050565b600061126382611172565b9150819050919050565b60006020820190506112826000830184610f21565b92915050565b600060408201905061129d6000830185610f12565b6112aa6020830184611232565b9392505050565b60006040820190506112c66000830185610f21565b6112d36020830184611232565b9392505050565b600060208201905081810360008301526112f48184610f61565b905092915050565b6000602082019050818103600083015261131581610f9a565b9050919050565b6000602082019050818103600083015261133581611000565b9050919050565b6000602082019050818103600083015261135581611066565b9050919050565b60006020820190508181036000830152611375816110a6565b9050919050565b600060208201905081810360008301526113958161110c565b9050919050565b600060208201905081810360008301526113b58161118c565b9050919050565b600060208201905081810360008301526113d5816111cc565b9050919050565b60006020820190506113f16000830184611232565b92915050565b600081519050919050565b600081519050919050565b600081905092915050565b600082825260208201905092915050565b6000611434826115a0565b915061143f836115a0565b9250827fffffffffffffffffffffffffffffffffffffffffffffffffffffffffffffffff0382111561147457611473611613565b5b828201905092915050565b600061148a826115a0565b9150611495836115a0565b9250826114a5576114a4611642565b5b828204905092915050565b60006114bb826115a0565b91506114c6836115a0565b9250817fffffffffffffffffffffffffffffffffffffffffffffffffffffffffffffffff04831182151516156114ff576114fe611613565b5b828202905092915050565b6000611515826115a0565b9150611520836115a0565b92508282101561153357611532611613565b5b828203905092915050565b600061154982611580565b9050919050565b600061155b82611580565b9050919050565b60008115159050919050565b60006115798261153e565b9050919050565b600073ffffffffffffffffffffffffffffffffffffffff82169050919050565b6000819050919050565b60006115b5826115bc565b9050919050565b60006115c7826115ce565b9050919050565b60006115d982611580565b9050919050565b60005b838110156115fe5780820151818401526020810190506115e3565b8381111561160d576000848401525b50505050565b7f4e487b7100000000000000000000000000000000000000000000000000000000600052601160045260246000fd5b7f4e487b7100000000000000000000000000000000000000000000000000000000600052601260045260246000fd5b6000601f19601f8301169050919050565b61168b8161153e565b811461169657600080fd5b50565b6116a281611550565b81146116ad57600080fd5b50565b6116b981611562565b81146116c457600080fd5b50565b6116d08161156e565b81146116db57600080fd5b50565b6116e7816115a0565b81146116f257600080fd5b5056fea26469706673582212206afaaf7c8a7d6f093800e3e5872d0142c37a71bdce4b983e58b2d20249228aed64736f6c63430008000033",
  "immutableReferences": {},
  "source": "// SPDX-License-Identifier: MIT\npragma solidity >=0.4.22 <0.9.0;\n\nimport \"@openzeppelin/contracts/finance/PaymentSplitter.sol\";\n\ncontract RoyaltyPayments is PaymentSplitter {\n    \n    constructor (address[] memory _payees, uint256[] memory _shares) PaymentSplitter (_payees, _shares ) payable {\n    }\n}",
  "sourcePath": "/Users/andrewmlevy/Documents/blockchain/4_portfolio_projects/mozis-app/src/contracts/RoyaltyPayments.sol",
  "compiler": {
    "name": "solc",
    "version": "0.8.0+commit.c7dfd78e.Emscripten.clang"
  },
  "schemaVersion": "3.4.3",
  "updatedAt": "2021-11-26T02:19:09.401Z",
  "devdoc": {
    "kind": "dev",
    "methods": {
      "payee(uint256)": {
        "details": "Getter for the address of the payee number `index`."
      },
      "release(address)": {
        "details": "Triggers a transfer to `account` of the amount of Ether they are owed, according to their percentage of the total shares and their previous withdrawals."
      },
      "release(address,address)": {
        "details": "Triggers a transfer to `account` of the amount of `token` tokens they are owed, according to their percentage of the total shares and their previous withdrawals. `token` must be the address of an IERC20 contract."
      },
      "released(address)": {
        "details": "Getter for the amount of Ether already released to a payee."
      },
      "released(address,address)": {
        "details": "Getter for the amount of `token` tokens already released to a payee. `token` should be the address of an IERC20 contract."
      },
      "shares(address)": {
        "details": "Getter for the amount of shares held by an account."
      },
      "totalReleased()": {
        "details": "Getter for the total amount of Ether already released."
      },
      "totalReleased(address)": {
        "details": "Getter for the total amount of `token` already released. `token` should be the address of an IERC20 contract."
      },
      "totalShares()": {
        "details": "Getter for the total shares held by payees."
      }
    },
    "version": 1
  },
  "userdoc": {
    "kind": "user",
    "methods": {},
    "version": 1
  }
}