{
  "contractName": "Token",
  "abi": [
    {
      "inputs": [
        {
          "internalType": "address",
          "name": "_artist",
          "type": "address"
        },
        {
          "internalType": "string",
          "name": "_uriString",
          "type": "string"
        },
        {
          "internalType": "address",
          "name": "_royaltyAddress",
          "type": "address"
        },
        {
          "internalType": "uint256",
          "name": "_royaltyPercent",
          "type": "uint256"
        }
      ],
      "stateMutability": "nonpayable",
      "type": "constructor"
    },
    {
      "anonymous": false,
      "inputs": [
        {
          "indexed": true,
          "internalType": "address",
          "name": "account",
          "type": "address"
        },
        {
          "indexed": true,
          "internalType": "address",
          "name": "operator",
          "type": "address"
        },
        {
          "indexed": false,
          "internalType": "bool",
          "name": "approved",
          "type": "bool"
        }
      ],
      "name": "ApprovalForAll",
      "type": "event"
    },
    {
      "anonymous": false,
      "inputs": [
        {
          "indexed": true,
          "internalType": "address",
          "name": "previousOwner",
          "type": "address"
        },
        {
          "indexed": true,
          "internalType": "address",
          "name": "newOwner",
          "type": "address"
        }
      ],
      "name": "OwnershipTransferred",
      "type": "event"
    },
    {
      "anonymous": false,
      "inputs": [
        {
          "indexed": true,
          "internalType": "address",
          "name": "operator",
          "type": "address"
        },
        {
          "indexed": true,
          "internalType": "address",
          "name": "from",
          "type": "address"
        },
        {
          "indexed": true,
          "internalType": "address",
          "name": "to",
          "type": "address"
        },
        {
          "indexed": false,
          "internalType": "uint256[]",
          "name": "ids",
          "type": "uint256[]"
        },
        {
          "indexed": false,
          "internalType": "uint256[]",
          "name": "values",
          "type": "uint256[]"
        }
      ],
      "name": "TransferBatch",
      "type": "event"
    },
    {
      "anonymous": false,
      "inputs": [
        {
          "indexed": true,
          "internalType": "address",
          "name": "operator",
          "type": "address"
        },
        {
          "indexed": true,
          "internalType": "address",
          "name": "from",
          "type": "address"
        },
        {
          "indexed": true,
          "internalType": "address",
          "name": "to",
          "type": "address"
        },
        {
          "indexed": false,
          "internalType": "uint256",
          "name": "id",
          "type": "uint256"
        },
        {
          "indexed": false,
          "internalType": "uint256",
          "name": "value",
          "type": "uint256"
        }
      ],
      "name": "TransferSingle",
      "type": "event"
    },
    {
      "anonymous": false,
      "inputs": [
        {
          "indexed": false,
          "internalType": "string",
          "name": "value",
          "type": "string"
        },
        {
          "indexed": true,
          "internalType": "uint256",
          "name": "id",
          "type": "uint256"
        }
      ],
      "name": "URI",
      "type": "event"
    },
    {
      "inputs": [],
      "name": "PENGUIN0",
      "outputs": [
        {
          "internalType": "uint256",
          "name": "",
          "type": "uint256"
        }
      ],
      "stateMutability": "view",
      "type": "function"
    },
    {
      "inputs": [],
      "name": "PENGUIN1",
      "outputs": [
        {
          "internalType": "uint256",
          "name": "",
          "type": "uint256"
        }
      ],
      "stateMutability": "view",
      "type": "function"
    },
    {
      "inputs": [],
      "name": "PENGUIN2",
      "outputs": [
        {
          "internalType": "uint256",
          "name": "",
          "type": "uint256"
        }
      ],
      "stateMutability": "view",
      "type": "function"
    },
    {
      "inputs": [
        {
          "internalType": "address",
          "name": "account",
          "type": "address"
        },
        {
          "internalType": "uint256",
          "name": "id",
          "type": "uint256"
        }
      ],
      "name": "balanceOf",
      "outputs": [
        {
          "internalType": "uint256",
          "name": "",
          "type": "uint256"
        }
      ],
      "stateMutability": "view",
      "type": "function"
    },
    {
      "inputs": [
        {
          "internalType": "address[]",
          "name": "accounts",
          "type": "address[]"
        },
        {
          "internalType": "uint256[]",
          "name": "ids",
          "type": "uint256[]"
        }
      ],
      "name": "balanceOfBatch",
      "outputs": [
        {
          "internalType": "uint256[]",
          "name": "",
          "type": "uint256[]"
        }
      ],
      "stateMutability": "view",
      "type": "function"
    },
    {
      "inputs": [
        {
          "internalType": "address",
          "name": "account",
          "type": "address"
        },
        {
          "internalType": "address",
          "name": "operator",
          "type": "address"
        }
      ],
      "name": "isApprovedForAll",
      "outputs": [
        {
          "internalType": "bool",
          "name": "",
          "type": "bool"
        }
      ],
      "stateMutability": "view",
      "type": "function"
    },
    {
      "inputs": [],
      "name": "owner",
      "outputs": [
        {
          "internalType": "address",
          "name": "",
          "type": "address"
        }
      ],
      "stateMutability": "view",
      "type": "function"
    },
    {
      "inputs": [],
      "name": "renounceOwnership",
      "outputs": [],
      "stateMutability": "nonpayable",
      "type": "function"
    },
    {
      "inputs": [],
      "name": "royaltyAddress",
      "outputs": [
        {
          "internalType": "address",
          "name": "",
          "type": "address"
        }
      ],
      "stateMutability": "view",
      "type": "function"
    },
    {
      "inputs": [
        {
          "internalType": "uint256",
          "name": "",
          "type": "uint256"
        },
        {
          "internalType": "uint256",
          "name": "_salePrice",
          "type": "uint256"
        }
      ],
      "name": "royaltyInfo",
      "outputs": [
        {
          "internalType": "address",
          "name": "receiver",
          "type": "address"
        },
        {
          "internalType": "uint256",
          "name": "royaltyAmount",
          "type": "uint256"
        }
      ],
      "stateMutability": "view",
      "type": "function"
    },
    {
      "inputs": [],
      "name": "royaltyPercent",
      "outputs": [
        {
          "internalType": "uint256",
          "name": "",
          "type": "uint256"
        }
      ],
      "stateMutability": "view",
      "type": "function"
    },
    {
      "inputs": [
        {
          "internalType": "address",
          "name": "from",
          "type": "address"
        },
        {
          "internalType": "address",
          "name": "to",
          "type": "address"
        },
        {
          "internalType": "uint256[]",
          "name": "ids",
          "type": "uint256[]"
        },
        {
          "internalType": "uint256[]",
          "name": "amounts",
          "type": "uint256[]"
        },
        {
          "internalType": "bytes",
          "name": "data",
          "type": "bytes"
        }
      ],
      "name": "safeBatchTransferFrom",
      "outputs": [],
      "stateMutability": "nonpayable",
      "type": "function"
    },
    {
      "inputs": [
        {
          "internalType": "address",
          "name": "from",
          "type": "address"
        },
        {
          "internalType": "address",
          "name": "to",
          "type": "address"
        },
        {
          "internalType": "uint256",
          "name": "id",
          "type": "uint256"
        },
        {
          "internalType": "uint256",
          "name": "amount",
          "type": "uint256"
        },
        {
          "internalType": "bytes",
          "name": "data",
          "type": "bytes"
        }
      ],
      "name": "safeTransferFrom",
      "outputs": [],
      "stateMutability": "nonpayable",
      "type": "function"
    },
    {
      "inputs": [
        {
          "internalType": "address",
          "name": "operator",
          "type": "address"
        },
        {
          "internalType": "bool",
          "name": "approved",
          "type": "bool"
        }
      ],
      "name": "setApprovalForAll",
      "outputs": [],
      "stateMutability": "nonpayable",
      "type": "function"
    },
    {
      "inputs": [
        {
          "internalType": "bytes4",
          "name": "interfaceId",
          "type": "bytes4"
        }
      ],
      "name": "supportsInterface",
      "outputs": [
        {
          "internalType": "bool",
          "name": "",
          "type": "bool"
        }
      ],
      "stateMutability": "view",
      "type": "function"
    },
    {
      "inputs": [
        {
          "internalType": "address",
          "name": "newOwner",
          "type": "address"
        }
      ],
      "name": "transferOwnership",
      "outputs": [],
      "stateMutability": "nonpayable",
      "type": "function"
    },
    {
      "inputs": [
        {
          "internalType": "uint256",
          "name": "_tokenId",
          "type": "uint256"
        }
      ],
      "name": "uri",
      "outputs": [
        {
          "internalType": "string",
          "name": "",
          "type": "string"
        }
      ],
      "stateMutability": "view",
      "type": "function"
    }
  ],
  "bytecode": "0x60806040523480156200001157600080fd5b5060405162003dea38038062003dea83398181016040528101906200003791906200082a565b826200004981620000f460201b60201c565b506200006a6200005e6200011060201b60201c565b6200011860201b60201c565b6200007c8282620001de60201b60201c565b620000a18460006001604051806020016040528060008152506200022a60201b60201c565b620000c584600180604051806020016040528060008152506200022a60201b60201c565b620000ea8460026001604051806020016040528060008152506200022a60201b60201c565b5050505062000f61565b80600290805190602001906200010c929190620006c3565b5050565b600033905090565b6000600360009054906101000a900473ffffffffffffffffffffffffffffffffffffffff16905081600360006101000a81548173ffffffffffffffffffffffffffffffffffffffff021916908373ffffffffffffffffffffffffffffffffffffffff1602179055508173ffffffffffffffffffffffffffffffffffffffff168173ffffffffffffffffffffffffffffffffffffffff167f8be0079c531659141344cd1fd0a4f28419497f9722a3daafe3b4186f6b6457e060405160405180910390a35050565b81600460006101000a81548173ffffffffffffffffffffffffffffffffffffffff021916908373ffffffffffffffffffffffffffffffffffffffff160217905550806005819055505050565b600073ffffffffffffffffffffffffffffffffffffffff168473ffffffffffffffffffffffffffffffffffffffff1614156200029d576040517f08c379a0000000000000000000000000000000000000000000000000000000008152600401620002949062000b83565b60405180910390fd5b6000620002af6200011060201b60201c565b9050620002e881600087620002ca88620003ef60201b60201c565b620002db88620003ef60201b60201c565b87620004b860201b60201c565b8260008086815260200190815260200160002060008773ffffffffffffffffffffffffffffffffffffffff1673ffffffffffffffffffffffffffffffffffffffff168152602001908152602001600020600082825462000349919062000c71565b925050819055508473ffffffffffffffffffffffffffffffffffffffff16600073ffffffffffffffffffffffffffffffffffffffff168273ffffffffffffffffffffffffffffffffffffffff167fc3d58168c5ae7397731d063d5bbf3d657854427343f4c083240f7aacaa2d0f628787604051620003c992919062000ba5565b60405180910390a4620003e881600087878787620004c060201b60201c565b5050505050565b60606000600167ffffffffffffffff81111562000435577f4e487b7100000000000000000000000000000000000000000000000000000000600052604160045260246000fd5b604051908082528060200260200182016040528015620004645781602001602082028036833780820191505090505b5090508281600081518110620004a3577f4e487b7100000000000000000000000000000000000000000000000000000000600052603260045260246000fd5b60200260200101818152505080915050919050565b505050505050565b620004ec8473ffffffffffffffffffffffffffffffffffffffff16620006b060201b62000b081760201c565b15620006a8578373ffffffffffffffffffffffffffffffffffffffff1663f23a6e6187878686866040518663ffffffff1660e01b81526004016200053595949392919062000ab7565b602060405180830381600087803b1580156200055057600080fd5b505af19250505080156200058457506040513d601f19601f82011682018060405250810190620005819190620008af565b60015b6200061c576200059362000e4f565b80620005a05750620005df565b806040517f08c379a0000000000000000000000000000000000000000000000000000000008152600401620005d6919062000b1b565b60405180910390fd5b6040517f08c379a0000000000000000000000000000000000000000000000000000000008152600401620006139062000b3f565b60405180910390fd5b63f23a6e6160e01b7bffffffffffffffffffffffffffffffffffffffffffffffffffffffff1916817bffffffffffffffffffffffffffffffffffffffffffffffffffffffff191614620006a6576040517f08c379a00000000000000000000000000000000000000000000000000000000081526004016200069d9062000b61565b60405180910390fd5b505b505050505050565b600080823b905060008111915050919050565b828054620006d19062000d6e565b90600052602060002090601f016020900481019282620006f5576000855562000741565b82601f106200071057805160ff191683800117855562000741565b8280016001018555821562000741579182015b828111156200074057825182559160200191906001019062000723565b5b50905062000750919062000754565b5090565b5b808211156200076f57600081600090555060010162000755565b5090565b60006200078a620007848462000c06565b62000bd2565b905082815260208101848484011115620007a357600080fd5b620007b084828562000d38565b509392505050565b600081519050620007c98162000f13565b92915050565b600081519050620007e08162000f2d565b92915050565b600082601f830112620007f857600080fd5b81516200080a84826020860162000773565b91505092915050565b600081519050620008248162000f47565b92915050565b600080600080608085870312156200084157600080fd5b60006200085187828801620007b8565b945050602085015167ffffffffffffffff8111156200086f57600080fd5b6200087d87828801620007e6565b93505060406200089087828801620007b8565b9250506060620008a38782880162000813565b91505092959194509250565b600060208284031215620008c257600080fd5b6000620008d284828501620007cf565b91505092915050565b620008e68162000cce565b82525050565b6000620008f98262000c39565b62000905818562000c4f565b93506200091781856020860162000d38565b620009228162000e31565b840191505092915050565b60006200093a8262000c44565b62000946818562000c60565b93506200095881856020860162000d38565b620009638162000e31565b840191505092915050565b60006200097d60348362000c60565b91507f455243313135353a207472616e7366657220746f206e6f6e204552433131353560008301527f526563656976657220696d706c656d656e7465720000000000000000000000006020830152604082019050919050565b6000620009e560288362000c60565b91507f455243313135353a204552433131353552656365697665722072656a6563746560008301527f6420746f6b656e730000000000000000000000000000000000000000000000006020830152604082019050919050565b600062000a4d60218362000c60565b91507f455243313135353a206d696e7420746f20746865207a65726f2061646472657360008301527f73000000000000000000000000000000000000000000000000000000000000006020830152604082019050919050565b62000ab18162000d2e565b82525050565b600060a08201905062000ace6000830188620008db565b62000add6020830187620008db565b62000aec604083018662000aa6565b62000afb606083018562000aa6565b818103608083015262000b0f8184620008ec565b90509695505050505050565b6000602082019050818103600083015262000b3781846200092d565b905092915050565b6000602082019050818103600083015262000b5a816200096e565b9050919050565b6000602082019050818103600083015262000b7c81620009d6565b9050919050565b6000602082019050818103600083015262000b9e8162000a3e565b9050919050565b600060408201905062000bbc600083018562000aa6565b62000bcb602083018462000aa6565b9392505050565b6000604051905081810181811067ffffffffffffffff8211171562000bfc5762000bfb62000e02565b5b8060405250919050565b600067ffffffffffffffff82111562000c245762000c2362000e02565b5b601f19601f8301169050602081019050919050565b600081519050919050565b600081519050919050565b600082825260208201905092915050565b600082825260208201905092915050565b600062000c7e8262000d2e565b915062000c8b8362000d2e565b9250827fffffffffffffffffffffffffffffffffffffffffffffffffffffffffffffffff0382111562000cc35762000cc262000da4565b5b828201905092915050565b600062000cdb8262000d0e565b9050919050565b60007fffffffff0000000000000000000000000000000000000000000000000000000082169050919050565b600073ffffffffffffffffffffffffffffffffffffffff82169050919050565b6000819050919050565b60005b8381101562000d5857808201518184015260208101905062000d3b565b8381111562000d68576000848401525b50505050565b6000600282049050600182168062000d8757607f821691505b6020821081141562000d9e5762000d9d62000dd3565b5b50919050565b7f4e487b7100000000000000000000000000000000000000000000000000000000600052601160045260246000fd5b7f4e487b7100000000000000000000000000000000000000000000000000000000600052602260045260246000fd5b7f4e487b7100000000000000000000000000000000000000000000000000000000600052604160045260246000fd5b6000601f19601f8301169050919050565b60008160e01c9050919050565b600060443d101562000e615762000f10565b60046000803e62000e7460005162000e42565b6308c379a0811462000e87575062000f10565b60405160043d036004823e80513d602482011167ffffffffffffffff8211171562000eb55750505062000f10565b808201805167ffffffffffffffff81111562000ed657505050505062000f10565b8060208301013d850181111562000ef35750505050505062000f10565b62000efe8262000e31565b60208401016040528296505050505050505b90565b62000f1e8162000cce565b811462000f2a57600080fd5b50565b62000f388162000ce2565b811462000f4457600080fd5b50565b62000f528162000d2e565b811462000f5e57600080fd5b50565b612e798062000f716000396000f3fe608060405234801561001057600080fd5b506004361061010a5760003560e01c80634e1273f4116100a2578063a22cb46511610071578063a22cb465146102bc578063ad2f852a146102d8578063e985e9c5146102f6578063f242432a14610326578063f2fde38b146103425761010a565b80634e1273f414610246578063715018a6146102765780638da5cb5b146102805780639f67756d1461029e5761010a565b806315179e24116100de57806315179e24146101bd5780632a55205a146101db5780632ba940641461020c5780632eb2c2d61461022a5761010a565b8062fdd58e1461010f57806301ffc9a71461013f5780630bbc731c1461016f5780630e89341c1461018d575b600080fd5b61012960048036038101906101249190611da9565b61035e565b60405161013691906128c8565b60405180910390f35b61015960048036038101906101549190611e51565b610427565b604051610166919061270b565b60405180910390f35b610177610509565b60405161018491906128c8565b60405180910390f35b6101a760048036038101906101a29190611ea3565b61050e565b6040516101b49190612726565b60405180910390f35b6101c561053f565b6040516101d291906128c8565b60405180910390f35b6101f560048036038101906101f09190611ecc565b610544565b604051610203929190612689565b60405180910390f35b610214610590565b60405161022191906128c8565b60405180910390f35b610244600480360381019061023f9190611c1f565b610595565b005b610260600480360381019061025b9190611de5565b610636565b60405161026d91906126b2565b60405180910390f35b61027e6107e7565b005b61028861086f565b60405161029591906125ac565b60405180910390f35b6102a6610899565b6040516102b391906128c8565b60405180910390f35b6102d660048036038101906102d19190611d6d565b61089f565b005b6102e06108b5565b6040516102ed91906125ac565b60405180910390f35b610310600480360381019061030b9190611be3565b6108db565b60405161031d919061270b565b60405180910390f35b610340600480360381019061033b9190611cde565b61096f565b005b61035c60048036038101906103579190611bba565b610a10565b005b60008073ffffffffffffffffffffffffffffffffffffffff168373ffffffffffffffffffffffffffffffffffffffff1614156103cf576040517f08c379a00000000000000000000000000000000000000000000000000000000081526004016103c690612788565b60405180910390fd5b60008083815260200190815260200160002060008473ffffffffffffffffffffffffffffffffffffffff1673ffffffffffffffffffffffffffffffffffffffff16815260200190815260200160002054905092915050565b60007fd9b67a26000000000000000000000000000000000000000000000000000000007bffffffffffffffffffffffffffffffffffffffffffffffffffffffff1916827bffffffffffffffffffffffffffffffffffffffffffffffffffffffff191614806104f257507f0e89341c000000000000000000000000000000000000000000000000000000007bffffffffffffffffffffffffffffffffffffffffffffffffffffffff1916827bffffffffffffffffffffffffffffffffffffffffffffffffffffffff1916145b80610502575061050182610b1b565b5b9050919050565b600181565b606061051982610b85565b604051602001610529919061257f565b6040516020818303038152906040529050919050565b600081565b600080600460009054906101000a900473ffffffffffffffffffffffffffffffffffffffff1691506127106005548461057d9190612ac8565b6105879190612a97565b90509250929050565b600281565b61059d610d32565b73ffffffffffffffffffffffffffffffffffffffff168573ffffffffffffffffffffffffffffffffffffffff1614806105e357506105e2856105dd610d32565b6108db565b5b610622576040517f08c379a000000000000000000000000000000000000000000000000000000000815260040161061990612808565b60405180910390fd5b61062f8585858585610d3a565b5050505050565b6060815183511461067c576040517f08c379a000000000000000000000000000000000000000000000000000000000815260040161067390612888565b60405180910390fd5b6000835167ffffffffffffffff8111156106bf577f4e487b7100000000000000000000000000000000000000000000000000000000600052604160045260246000fd5b6040519080825280602002602001820160405280156106ed5781602001602082028036833780820191505090505b50905060005b84518110156107dc57610786858281518110610738577f4e487b7100000000000000000000000000000000000000000000000000000000600052603260045260246000fd5b6020026020010151858381518110610779577f4e487b7100000000000000000000000000000000000000000000000000000000600052603260045260246000fd5b602002602001015161035e565b8282815181106107bf577f4e487b7100000000000000000000000000000000000000000000000000000000600052603260045260246000fd5b602002602001018181525050806107d590612c0c565b90506106f3565b508091505092915050565b6107ef610d32565b73ffffffffffffffffffffffffffffffffffffffff1661080d61086f565b73ffffffffffffffffffffffffffffffffffffffff1614610863576040517f08c379a000000000000000000000000000000000000000000000000000000000815260040161085a90612848565b60405180910390fd5b61086d600061109a565b565b6000600360009054906101000a900473ffffffffffffffffffffffffffffffffffffffff16905090565b60055481565b6108b16108aa610d32565b8383611160565b5050565b600460009054906101000a900473ffffffffffffffffffffffffffffffffffffffff1681565b6000600160008473ffffffffffffffffffffffffffffffffffffffff1673ffffffffffffffffffffffffffffffffffffffff16815260200190815260200160002060008373ffffffffffffffffffffffffffffffffffffffff1673ffffffffffffffffffffffffffffffffffffffff16815260200190815260200160002060009054906101000a900460ff16905092915050565b610977610d32565b73ffffffffffffffffffffffffffffffffffffffff168573ffffffffffffffffffffffffffffffffffffffff1614806109bd57506109bc856109b7610d32565b6108db565b5b6109fc576040517f08c379a00000000000000000000000000000000000000000000000000000000081526004016109f3906127c8565b60405180910390fd5b610a0985858585856112cd565b5050505050565b610a18610d32565b73ffffffffffffffffffffffffffffffffffffffff16610a3661086f565b73ffffffffffffffffffffffffffffffffffffffff1614610a8c576040517f08c379a0000000000000000000000000000000000000000000000000000000008152600401610a8390612848565b60405180910390fd5b600073ffffffffffffffffffffffffffffffffffffffff168173ffffffffffffffffffffffffffffffffffffffff161415610afc576040517f08c379a0000000000000000000000000000000000000000000000000000000008152600401610af3906127a8565b60405180910390fd5b610b058161109a565b50565b600080823b905060008111915050919050565b60007f01ffc9a7000000000000000000000000000000000000000000000000000000007bffffffffffffffffffffffffffffffffffffffffffffffffffffffff1916827bffffffffffffffffffffffffffffffffffffffffffffffffffffffff1916149050919050565b60606000821415610bcd576040518060400160405280600181526020017f30000000000000000000000000000000000000000000000000000000000000008152509050610d2d565b600082905060005b60008214610bff578080610be890612c0c565b915050600a82610bf89190612a97565b9150610bd5565b60008167ffffffffffffffff811115610c41577f4e487b7100000000000000000000000000000000000000000000000000000000600052604160045260246000fd5b6040519080825280601f01601f191660200182016040528015610c735781602001600182028036833780820191505090505b5090505b60008514610d2657600182610c8c9190612b22565b9150600a85610c9b9190612c55565b6030610ca79190612a41565b60f81b818381518110610ce3577f4e487b7100000000000000000000000000000000000000000000000000000000600052603260045260246000fd5b60200101907effffffffffffffffffffffffffffffffffffffffffffffffffffffffffffff1916908160001a905350600a85610d1f9190612a97565b9450610c77565b8093505050505b919050565b600033905090565b8151835114610d7e576040517f08c379a0000000000000000000000000000000000000000000000000000000008152600401610d75906128a8565b60405180910390fd5b600073ffffffffffffffffffffffffffffffffffffffff168473ffffffffffffffffffffffffffffffffffffffff161415610dee576040517f08c379a0000000000000000000000000000000000000000000000000000000008152600401610de5906127e8565b60405180910390fd5b6000610df8610d32565b9050610e0881878787878761154f565b60005b8451811015611005576000858281518110610e4f577f4e487b7100000000000000000000000000000000000000000000000000000000600052603260045260246000fd5b602002602001015190506000858381518110610e94577f4e487b7100000000000000000000000000000000000000000000000000000000600052603260045260246000fd5b60200260200101519050600080600084815260200190815260200160002060008b73ffffffffffffffffffffffffffffffffffffffff1673ffffffffffffffffffffffffffffffffffffffff16815260200190815260200160002054905081811015610f35576040517f08c379a0000000000000000000000000000000000000000000000000000000008152600401610f2c90612828565b60405180910390fd5b81810360008085815260200190815260200160002060008c73ffffffffffffffffffffffffffffffffffffffff1673ffffffffffffffffffffffffffffffffffffffff168152602001908152602001600020819055508160008085815260200190815260200160002060008b73ffffffffffffffffffffffffffffffffffffffff1673ffffffffffffffffffffffffffffffffffffffff1681526020019081526020016000206000828254610fea9190612a41565b9250508190555050505080610ffe90612c0c565b9050610e0b565b508473ffffffffffffffffffffffffffffffffffffffff168673ffffffffffffffffffffffffffffffffffffffff168273ffffffffffffffffffffffffffffffffffffffff167f4a39dc06d4c0dbc64b70af90fd698a233a518aa5d07e595d983b8c0526c8f7fb878760405161107c9291906126d4565b60405180910390a4611092818787878787611557565b505050505050565b6000600360009054906101000a900473ffffffffffffffffffffffffffffffffffffffff16905081600360006101000a81548173ffffffffffffffffffffffffffffffffffffffff021916908373ffffffffffffffffffffffffffffffffffffffff1602179055508173ffffffffffffffffffffffffffffffffffffffff168173ffffffffffffffffffffffffffffffffffffffff167f8be0079c531659141344cd1fd0a4f28419497f9722a3daafe3b4186f6b6457e060405160405180910390a35050565b8173ffffffffffffffffffffffffffffffffffffffff168373ffffffffffffffffffffffffffffffffffffffff1614156111cf576040517f08c379a00000000000000000000000000000000000000000000000000000000081526004016111c690612868565b60405180910390fd5b80600160008573ffffffffffffffffffffffffffffffffffffffff1673ffffffffffffffffffffffffffffffffffffffff16815260200190815260200160002060008473ffffffffffffffffffffffffffffffffffffffff1673ffffffffffffffffffffffffffffffffffffffff16815260200190815260200160002060006101000a81548160ff0219169083151502179055508173ffffffffffffffffffffffffffffffffffffffff168373ffffffffffffffffffffffffffffffffffffffff167f17307eab39ab6107e8899845ad3d59bd9653f200f220920489ca2b5937696c31836040516112c0919061270b565b60405180910390a3505050565b600073ffffffffffffffffffffffffffffffffffffffff168473ffffffffffffffffffffffffffffffffffffffff16141561133d576040517f08c379a0000000000000000000000000000000000000000000000000000000008152600401611334906127e8565b60405180910390fd5b6000611347610d32565b905061136781878761135888611727565b61136188611727565b8761154f565b600080600086815260200190815260200160002060008873ffffffffffffffffffffffffffffffffffffffff1673ffffffffffffffffffffffffffffffffffffffff168152602001908152602001600020549050838110156113fe576040517f08c379a00000000000000000000000000000000000000000000000000000000081526004016113f590612828565b60405180910390fd5b83810360008087815260200190815260200160002060008973ffffffffffffffffffffffffffffffffffffffff1673ffffffffffffffffffffffffffffffffffffffff168152602001908152602001600020819055508360008087815260200190815260200160002060008873ffffffffffffffffffffffffffffffffffffffff1673ffffffffffffffffffffffffffffffffffffffff16815260200190815260200160002060008282546114b39190612a41565b925050819055508573ffffffffffffffffffffffffffffffffffffffff168773ffffffffffffffffffffffffffffffffffffffff168373ffffffffffffffffffffffffffffffffffffffff167fc3d58168c5ae7397731d063d5bbf3d657854427343f4c083240f7aacaa2d0f6288886040516115309291906128e3565b60405180910390a46115468288888888886117ed565b50505050505050565b505050505050565b6115768473ffffffffffffffffffffffffffffffffffffffff16610b08565b1561171f578373ffffffffffffffffffffffffffffffffffffffff1663bc197c8187878686866040518663ffffffff1660e01b81526004016115bc9594939291906125c7565b602060405180830381600087803b1580156115d657600080fd5b505af192505050801561160757506040513d601f19601f820116820180604052508101906116049190611e7a565b60015b61169657611613612d31565b8061161e575061165b565b806040517f08c379a00000000000000000000000000000000000000000000000000000000081526004016116529190612726565b60405180910390fd5b6040517f08c379a000000000000000000000000000000000000000000000000000000000815260040161168d90612748565b60405180910390fd5b63bc197c8160e01b7bffffffffffffffffffffffffffffffffffffffffffffffffffffffff1916817bffffffffffffffffffffffffffffffffffffffffffffffffffffffff19161461171d576040517f08c379a000000000000000000000000000000000000000000000000000000000815260040161171490612768565b60405180910390fd5b505b505050505050565b60606000600167ffffffffffffffff81111561176c577f4e487b7100000000000000000000000000000000000000000000000000000000600052604160045260246000fd5b60405190808252806020026020018201604052801561179a5781602001602082028036833780820191505090505b50905082816000815181106117d8577f4e487b7100000000000000000000000000000000000000000000000000000000600052603260045260246000fd5b60200260200101818152505080915050919050565b61180c8473ffffffffffffffffffffffffffffffffffffffff16610b08565b156119b5578373ffffffffffffffffffffffffffffffffffffffff1663f23a6e6187878686866040518663ffffffff1660e01b815260040161185295949392919061262f565b602060405180830381600087803b15801561186c57600080fd5b505af192505050801561189d57506040513d601f19601f8201168201806040525081019061189a9190611e7a565b60015b61192c576118a9612d31565b806118b457506118f1565b806040517f08c379a00000000000000000000000000000000000000000000000000000000081526004016118e89190612726565b60405180910390fd5b6040517f08c379a000000000000000000000000000000000000000000000000000000000815260040161192390612748565b60405180910390fd5b63f23a6e6160e01b7bffffffffffffffffffffffffffffffffffffffffffffffffffffffff1916817bffffffffffffffffffffffffffffffffffffffffffffffffffffffff1916146119b3576040517f08c379a00000000000000000000000000000000000000000000000000000000081526004016119aa90612768565b60405180910390fd5b505b505050505050565b60006119d06119cb8461293d565b61290c565b905080838252602082019050828560208602820111156119ef57600080fd5b60005b85811015611a1f5781611a058882611ad3565b8452602084019350602083019250506001810190506119f2565b5050509392505050565b6000611a3c611a3784612969565b61290c565b90508083825260208201905082856020860282011115611a5b57600080fd5b60005b85811015611a8b5781611a718882611ba5565b845260208401935060208301925050600181019050611a5e565b5050509392505050565b6000611aa8611aa384612995565b61290c565b905082815260208101848484011115611ac057600080fd5b611acb848285612bca565b509392505050565b600081359050611ae281612de7565b92915050565b600082601f830112611af957600080fd5b8135611b098482602086016119bd565b91505092915050565b600082601f830112611b2357600080fd5b8135611b33848260208601611a29565b91505092915050565b600081359050611b4b81612dfe565b92915050565b600081359050611b6081612e15565b92915050565b600081519050611b7581612e15565b92915050565b600082601f830112611b8c57600080fd5b8135611b9c848260208601611a95565b91505092915050565b600081359050611bb481612e2c565b92915050565b600060208284031215611bcc57600080fd5b6000611bda84828501611ad3565b91505092915050565b60008060408385031215611bf657600080fd5b6000611c0485828601611ad3565b9250506020611c1585828601611ad3565b9150509250929050565b600080600080600060a08688031215611c3757600080fd5b6000611c4588828901611ad3565b9550506020611c5688828901611ad3565b945050604086013567ffffffffffffffff811115611c7357600080fd5b611c7f88828901611b12565b935050606086013567ffffffffffffffff811115611c9c57600080fd5b611ca888828901611b12565b925050608086013567ffffffffffffffff811115611cc557600080fd5b611cd188828901611b7b565b9150509295509295909350565b600080600080600060a08688031215611cf657600080fd5b6000611d0488828901611ad3565b9550506020611d1588828901611ad3565b9450506040611d2688828901611ba5565b9350506060611d3788828901611ba5565b925050608086013567ffffffffffffffff811115611d5457600080fd5b611d6088828901611b7b565b9150509295509295909350565b60008060408385031215611d8057600080fd5b6000611d8e85828601611ad3565b9250506020611d9f85828601611b3c565b9150509250929050565b60008060408385031215611dbc57600080fd5b6000611dca85828601611ad3565b9250506020611ddb85828601611ba5565b9150509250929050565b60008060408385031215611df857600080fd5b600083013567ffffffffffffffff811115611e1257600080fd5b611e1e85828601611ae8565b925050602083013567ffffffffffffffff811115611e3b57600080fd5b611e4785828601611b12565b9150509250929050565b600060208284031215611e6357600080fd5b6000611e7184828501611b51565b91505092915050565b600060208284031215611e8c57600080fd5b6000611e9a84828501611b66565b91505092915050565b600060208284031215611eb557600080fd5b6000611ec384828501611ba5565b91505092915050565b60008060408385031215611edf57600080fd5b6000611eed85828601611ba5565b9250506020611efe85828601611ba5565b9150509250929050565b6000611f148383612561565b60208301905092915050565b611f2981612b56565b82525050565b6000611f3a826129d5565b611f448185612a03565b9350611f4f836129c5565b8060005b83811015611f80578151611f678882611f08565b9750611f72836129f6565b925050600181019050611f53565b5085935050505092915050565b611f9681612b68565b82525050565b6000611fa7826129e0565b611fb18185612a14565b9350611fc1818560208601612bd9565b611fca81612d13565b840191505092915050565b6000611fe0826129eb565b611fea8185612a25565b9350611ffa818560208601612bd9565b61200381612d13565b840191505092915050565b6000612019826129eb565b6120238185612a36565b9350612033818560208601612bd9565b80840191505092915050565b600061204c603483612a25565b91507f455243313135353a207472616e7366657220746f206e6f6e204552433131353560008301527f526563656976657220696d706c656d656e7465720000000000000000000000006020830152604082019050919050565b60006120b2602883612a25565b91507f455243313135353a204552433131353552656365697665722072656a6563746560008301527f6420746f6b656e730000000000000000000000000000000000000000000000006020830152604082019050919050565b6000612118602b83612a25565b91507f455243313135353a2062616c616e636520717565727920666f7220746865207a60008301527f65726f20616464726573730000000000000000000000000000000000000000006020830152604082019050919050565b600061217e602683612a25565b91507f4f776e61626c653a206e6577206f776e657220697320746865207a65726f206160008301527f64647265737300000000000000000000000000000000000000000000000000006020830152604082019050919050565b60006121e4602983612a25565b91507f455243313135353a2063616c6c6572206973206e6f74206f776e6572206e6f7260008301527f20617070726f76656400000000000000000000000000000000000000000000006020830152604082019050919050565b600061224a602583612a25565b91507f455243313135353a207472616e7366657220746f20746865207a65726f20616460008301527f64726573730000000000000000000000000000000000000000000000000000006020830152604082019050919050565b60006122b0603283612a25565b91507f455243313135353a207472616e736665722063616c6c6572206973206e6f742060008301527f6f776e6572206e6f7220617070726f76656400000000000000000000000000006020830152604082019050919050565b6000612316602a83612a25565b91507f455243313135353a20696e73756666696369656e742062616c616e636520666f60008301527f72207472616e73666572000000000000000000000000000000000000000000006020830152604082019050919050565b600061237c600583612a36565b91507f2e6a736f6e0000000000000000000000000000000000000000000000000000006000830152600582019050919050565b60006123bc602083612a25565b91507f4f776e61626c653a2063616c6c6572206973206e6f7420746865206f776e65726000830152602082019050919050565b60006123fc600b83612a36565b91507f7777772e6d652e636f6d2f0000000000000000000000000000000000000000006000830152600b82019050919050565b600061243c602983612a25565b91507f455243313135353a2073657474696e6720617070726f76616c2073746174757360008301527f20666f722073656c6600000000000000000000000000000000000000000000006020830152604082019050919050565b60006124a2602983612a25565b91507f455243313135353a206163636f756e747320616e6420696473206c656e67746860008301527f206d69736d6174636800000000000000000000000000000000000000000000006020830152604082019050919050565b6000612508602883612a25565b91507f455243313135353a2069647320616e6420616d6f756e7473206c656e6774682060008301527f6d69736d617463680000000000000000000000000000000000000000000000006020830152604082019050919050565b61256a81612bc0565b82525050565b61257981612bc0565b82525050565b600061258a826123ef565b9150612596828461200e565b91506125a18261236f565b915081905092915050565b60006020820190506125c16000830184611f20565b92915050565b600060a0820190506125dc6000830188611f20565b6125e96020830187611f20565b81810360408301526125fb8186611f2f565b9050818103606083015261260f8185611f2f565b905081810360808301526126238184611f9c565b90509695505050505050565b600060a0820190506126446000830188611f20565b6126516020830187611f20565b61265e6040830186612570565b61266b6060830185612570565b818103608083015261267d8184611f9c565b90509695505050505050565b600060408201905061269e6000830185611f20565b6126ab6020830184612570565b9392505050565b600060208201905081810360008301526126cc8184611f2f565b905092915050565b600060408201905081810360008301526126ee8185611f2f565b905081810360208301526127028184611f2f565b90509392505050565b60006020820190506127206000830184611f8d565b92915050565b600060208201905081810360008301526127408184611fd5565b905092915050565b600060208201905081810360008301526127618161203f565b9050919050565b60006020820190508181036000830152612781816120a5565b9050919050565b600060208201905081810360008301526127a18161210b565b9050919050565b600060208201905081810360008301526127c181612171565b9050919050565b600060208201905081810360008301526127e1816121d7565b9050919050565b600060208201905081810360008301526128018161223d565b9050919050565b60006020820190508181036000830152612821816122a3565b9050919050565b6000602082019050818103600083015261284181612309565b9050919050565b60006020820190508181036000830152612861816123af565b9050919050565b600060208201905081810360008301526128818161242f565b9050919050565b600060208201905081810360008301526128a181612495565b9050919050565b600060208201905081810360008301526128c1816124fb565b9050919050565b60006020820190506128dd6000830184612570565b92915050565b60006040820190506128f86000830185612570565b6129056020830184612570565b9392505050565b6000604051905081810181811067ffffffffffffffff8211171561293357612932612ce4565b5b8060405250919050565b600067ffffffffffffffff82111561295857612957612ce4565b5b602082029050602081019050919050565b600067ffffffffffffffff82111561298457612983612ce4565b5b602082029050602081019050919050565b600067ffffffffffffffff8211156129b0576129af612ce4565b5b601f19601f8301169050602081019050919050565b6000819050602082019050919050565b600081519050919050565b600081519050919050565b600081519050919050565b6000602082019050919050565b600082825260208201905092915050565b600082825260208201905092915050565b600082825260208201905092915050565b600081905092915050565b6000612a4c82612bc0565b9150612a5783612bc0565b9250827fffffffffffffffffffffffffffffffffffffffffffffffffffffffffffffffff03821115612a8c57612a8b612c86565b5b828201905092915050565b6000612aa282612bc0565b9150612aad83612bc0565b925082612abd57612abc612cb5565b5b828204905092915050565b6000612ad382612bc0565b9150612ade83612bc0565b9250817fffffffffffffffffffffffffffffffffffffffffffffffffffffffffffffffff0483118215151615612b1757612b16612c86565b5b828202905092915050565b6000612b2d82612bc0565b9150612b3883612bc0565b925082821015612b4b57612b4a612c86565b5b828203905092915050565b6000612b6182612ba0565b9050919050565b60008115159050919050565b60007fffffffff0000000000000000000000000000000000000000000000000000000082169050919050565b600073ffffffffffffffffffffffffffffffffffffffff82169050919050565b6000819050919050565b82818337600083830152505050565b60005b83811015612bf7578082015181840152602081019050612bdc565b83811115612c06576000848401525b50505050565b6000612c1782612bc0565b91507fffffffffffffffffffffffffffffffffffffffffffffffffffffffffffffffff821415612c4a57612c49612c86565b5b600182019050919050565b6000612c6082612bc0565b9150612c6b83612bc0565b925082612c7b57612c7a612cb5565b5b828206905092915050565b7f4e487b7100000000000000000000000000000000000000000000000000000000600052601160045260246000fd5b7f4e487b7100000000000000000000000000000000000000000000000000000000600052601260045260246000fd5b7f4e487b7100000000000000000000000000000000000000000000000000000000600052604160045260246000fd5b6000601f19601f8301169050919050565b60008160e01c9050919050565b600060443d1015612d4157612de4565b60046000803e612d52600051612d24565b6308c379a08114612d635750612de4565b60405160043d036004823e80513d602482011167ffffffffffffffff82111715612d8f57505050612de4565b808201805167ffffffffffffffff811115612dae575050505050612de4565b8060208301013d8501811115612dc957505050505050612de4565b612dd282612d13565b60208401016040528296505050505050505b90565b612df081612b56565b8114612dfb57600080fd5b50565b612e0781612b68565b8114612e1257600080fd5b50565b612e1e81612b74565b8114612e2957600080fd5b50565b612e3581612bc0565b8114612e4057600080fd5b5056fea2646970667358221220f2225808e7f8c6ba81a481e618c97f112d46484a12d7d903c0628df036db811e64736f6c63430008000033",
  "immutableReferences": {},
  "source": "// SPDX-License-Identifier: MIT\npragma solidity >=0.4.22 <0.9.0;\n\nimport \"@openzeppelin/contracts/token/ERC1155/ERC1155.sol\";\nimport \"@openzeppelin/contracts/access/Ownable.sol\";\nimport \"@openzeppelin/contracts/utils/Strings.sol\";\nimport \"@openzeppelin/contracts/utils/Counters.sol\";\nimport \"./ERC2981Collection.sol\";\n\ncontract Token is ERC1155, Ownable, ERC2981Collection {\n\n    // CUSTOM FOR CUSTOMER\n    uint256 public constant PENGUIN0 = 0;\n    uint256 public constant PENGUIN1 = 1;\n    uint256 public constant PENGUIN2 = 2;\n    //\n\n    constructor (\n        address _artist,\n        string memory _uriString,\n        address _royaltyAddress,\n        uint256 _royaltyPercent // 10000 = 100, 1000 = 10, 100 = 1\n    ) ERC1155 (\n        _uriString\n    ) {\n        _setRoyalties(_royaltyAddress, _royaltyPercent);\n\n        // CUSTOM FOR CUSTOMER\n        _mint(_artist, PENGUIN0, 1, \"\");\n        _mint(_artist, PENGUIN1, 1, \"\");\n        _mint(_artist, PENGUIN2, 1, \"\");\n        //\n    }\n    \n    // override uri - necessary for resale on OpenSea\n    function uri(uint256 _tokenId) public view virtual override returns (string memory) {\n        return string(\n            abi.encodePacked(\n                \"www.me.com/\",\n                Strings.toString(_tokenId),\n                \".json\"\n                )\n            );\n    }\n}",
  "sourcePath": "/Users/andrewmlevy/Documents/blockchain/4_portfolio_projects/mozis-app/src/contracts/Token.sol",
  "compiler": {
    "name": "solc",
    "version": "0.8.0+commit.c7dfd78e.Emscripten.clang"
  },
  "schemaVersion": "3.4.3",
  "updatedAt": "2021-11-26T02:19:09.408Z",
  "devdoc": {
    "kind": "dev",
    "methods": {
      "balanceOf(address,uint256)": {
        "details": "See {IERC1155-balanceOf}. Requirements: - `account` cannot be the zero address."
      },
      "balanceOfBatch(address[],uint256[])": {
        "details": "See {IERC1155-balanceOfBatch}. Requirements: - `accounts` and `ids` must have the same length."
      },
      "isApprovedForAll(address,address)": {
        "details": "See {IERC1155-isApprovedForAll}."
      },
      "owner()": {
        "details": "Returns the address of the current owner."
      },
      "renounceOwnership()": {
        "details": "Leaves the contract without owner. It will not be possible to call `onlyOwner` functions anymore. Can only be called by the current owner. NOTE: Renouncing ownership will leave the contract without an owner, thereby removing any functionality that is only available to the owner."
      },
      "safeBatchTransferFrom(address,address,uint256[],uint256[],bytes)": {
        "details": "See {IERC1155-safeBatchTransferFrom}."
      },
      "safeTransferFrom(address,address,uint256,uint256,bytes)": {
        "details": "See {IERC1155-safeTransferFrom}."
      },
      "setApprovalForAll(address,bool)": {
        "details": "See {IERC1155-setApprovalForAll}."
      },
      "supportsInterface(bytes4)": {
        "details": "See {IERC165-supportsInterface}."
      },
      "transferOwnership(address)": {
        "details": "Transfers ownership of the contract to a new account (`newOwner`). Can only be called by the current owner."
      }
    },
    "version": 1
  },
  "userdoc": {
    "kind": "user",
    "methods": {},
    "version": 1
  }
}