{
  "contractName": "Token",
  "abi": [
    {
      "inputs": [
        {
          "internalType": "address",
          "name": "_artist",
          "type": "address"
        },
        {
          "internalType": "string",
          "name": "_uriString",
          "type": "string"
        },
        {
          "internalType": "address",
          "name": "_royaltyAddress",
          "type": "address"
        },
        {
          "internalType": "uint256",
          "name": "_royaltyPercent",
          "type": "uint256"
        }
      ],
      "stateMutability": "nonpayable",
      "type": "constructor"
    },
    {
      "anonymous": false,
      "inputs": [
        {
          "indexed": true,
          "internalType": "address",
          "name": "account",
          "type": "address"
        },
        {
          "indexed": true,
          "internalType": "address",
          "name": "operator",
          "type": "address"
        },
        {
          "indexed": false,
          "internalType": "bool",
          "name": "approved",
          "type": "bool"
        }
      ],
      "name": "ApprovalForAll",
      "type": "event"
    },
    {
      "anonymous": false,
      "inputs": [
        {
          "indexed": true,
          "internalType": "address",
          "name": "previousOwner",
          "type": "address"
        },
        {
          "indexed": true,
          "internalType": "address",
          "name": "newOwner",
          "type": "address"
        }
      ],
      "name": "OwnershipTransferred",
      "type": "event"
    },
    {
      "anonymous": false,
      "inputs": [
        {
          "indexed": true,
          "internalType": "address",
          "name": "operator",
          "type": "address"
        },
        {
          "indexed": true,
          "internalType": "address",
          "name": "from",
          "type": "address"
        },
        {
          "indexed": true,
          "internalType": "address",
          "name": "to",
          "type": "address"
        },
        {
          "indexed": false,
          "internalType": "uint256[]",
          "name": "ids",
          "type": "uint256[]"
        },
        {
          "indexed": false,
          "internalType": "uint256[]",
          "name": "values",
          "type": "uint256[]"
        }
      ],
      "name": "TransferBatch",
      "type": "event"
    },
    {
      "anonymous": false,
      "inputs": [
        {
          "indexed": true,
          "internalType": "address",
          "name": "operator",
          "type": "address"
        },
        {
          "indexed": true,
          "internalType": "address",
          "name": "from",
          "type": "address"
        },
        {
          "indexed": true,
          "internalType": "address",
          "name": "to",
          "type": "address"
        },
        {
          "indexed": false,
          "internalType": "uint256",
          "name": "id",
          "type": "uint256"
        },
        {
          "indexed": false,
          "internalType": "uint256",
          "name": "value",
          "type": "uint256"
        }
      ],
      "name": "TransferSingle",
      "type": "event"
    },
    {
      "anonymous": false,
      "inputs": [
        {
          "indexed": false,
          "internalType": "string",
          "name": "value",
          "type": "string"
        },
        {
          "indexed": true,
          "internalType": "uint256",
          "name": "id",
          "type": "uint256"
        }
      ],
      "name": "URI",
      "type": "event"
    },
    {
      "inputs": [],
      "name": "SERENA0",
      "outputs": [
        {
          "internalType": "uint256",
          "name": "",
          "type": "uint256"
        }
      ],
      "stateMutability": "view",
      "type": "function",
      "constant": true
    },
    {
      "inputs": [],
      "name": "SERENA1",
      "outputs": [
        {
          "internalType": "uint256",
          "name": "",
          "type": "uint256"
        }
      ],
      "stateMutability": "view",
      "type": "function",
      "constant": true
    },
    {
      "inputs": [],
      "name": "SERENA2",
      "outputs": [
        {
          "internalType": "uint256",
          "name": "",
          "type": "uint256"
        }
      ],
      "stateMutability": "view",
      "type": "function",
      "constant": true
    },
    {
      "inputs": [],
      "name": "SERENA3",
      "outputs": [
        {
          "internalType": "uint256",
          "name": "",
          "type": "uint256"
        }
      ],
      "stateMutability": "view",
      "type": "function",
      "constant": true
    },
    {
      "inputs": [
        {
          "internalType": "address",
          "name": "account",
          "type": "address"
        },
        {
          "internalType": "uint256",
          "name": "id",
          "type": "uint256"
        }
      ],
      "name": "balanceOf",
      "outputs": [
        {
          "internalType": "uint256",
          "name": "",
          "type": "uint256"
        }
      ],
      "stateMutability": "view",
      "type": "function",
      "constant": true
    },
    {
      "inputs": [
        {
          "internalType": "address[]",
          "name": "accounts",
          "type": "address[]"
        },
        {
          "internalType": "uint256[]",
          "name": "ids",
          "type": "uint256[]"
        }
      ],
      "name": "balanceOfBatch",
      "outputs": [
        {
          "internalType": "uint256[]",
          "name": "",
          "type": "uint256[]"
        }
      ],
      "stateMutability": "view",
      "type": "function",
      "constant": true
    },
    {
      "inputs": [
        {
          "internalType": "address",
          "name": "account",
          "type": "address"
        },
        {
          "internalType": "address",
          "name": "operator",
          "type": "address"
        }
      ],
      "name": "isApprovedForAll",
      "outputs": [
        {
          "internalType": "bool",
          "name": "",
          "type": "bool"
        }
      ],
      "stateMutability": "view",
      "type": "function",
      "constant": true
    },
    {
      "inputs": [],
      "name": "owner",
      "outputs": [
        {
          "internalType": "address",
          "name": "",
          "type": "address"
        }
      ],
      "stateMutability": "view",
      "type": "function",
      "constant": true
    },
    {
      "inputs": [],
      "name": "renounceOwnership",
      "outputs": [],
      "stateMutability": "nonpayable",
      "type": "function"
    },
    {
      "inputs": [],
      "name": "royaltyAddress",
      "outputs": [
        {
          "internalType": "address",
          "name": "",
          "type": "address"
        }
      ],
      "stateMutability": "view",
      "type": "function",
      "constant": true
    },
    {
      "inputs": [
        {
          "internalType": "uint256",
          "name": "",
          "type": "uint256"
        },
        {
          "internalType": "uint256",
          "name": "_salePrice",
          "type": "uint256"
        }
      ],
      "name": "royaltyInfo",
      "outputs": [
        {
          "internalType": "address",
          "name": "receiver",
          "type": "address"
        },
        {
          "internalType": "uint256",
          "name": "royaltyAmount",
          "type": "uint256"
        }
      ],
      "stateMutability": "view",
      "type": "function",
      "constant": true
    },
    {
      "inputs": [],
      "name": "royaltyPercent",
      "outputs": [
        {
          "internalType": "uint256",
          "name": "",
          "type": "uint256"
        }
      ],
      "stateMutability": "view",
      "type": "function",
      "constant": true
    },
    {
      "inputs": [
        {
          "internalType": "address",
          "name": "from",
          "type": "address"
        },
        {
          "internalType": "address",
          "name": "to",
          "type": "address"
        },
        {
          "internalType": "uint256[]",
          "name": "ids",
          "type": "uint256[]"
        },
        {
          "internalType": "uint256[]",
          "name": "amounts",
          "type": "uint256[]"
        },
        {
          "internalType": "bytes",
          "name": "data",
          "type": "bytes"
        }
      ],
      "name": "safeBatchTransferFrom",
      "outputs": [],
      "stateMutability": "nonpayable",
      "type": "function"
    },
    {
      "inputs": [
        {
          "internalType": "address",
          "name": "from",
          "type": "address"
        },
        {
          "internalType": "address",
          "name": "to",
          "type": "address"
        },
        {
          "internalType": "uint256",
          "name": "id",
          "type": "uint256"
        },
        {
          "internalType": "uint256",
          "name": "amount",
          "type": "uint256"
        },
        {
          "internalType": "bytes",
          "name": "data",
          "type": "bytes"
        }
      ],
      "name": "safeTransferFrom",
      "outputs": [],
      "stateMutability": "nonpayable",
      "type": "function"
    },
    {
      "inputs": [
        {
          "internalType": "address",
          "name": "operator",
          "type": "address"
        },
        {
          "internalType": "bool",
          "name": "approved",
          "type": "bool"
        }
      ],
      "name": "setApprovalForAll",
      "outputs": [],
      "stateMutability": "nonpayable",
      "type": "function"
    },
    {
      "inputs": [
        {
          "internalType": "bytes4",
          "name": "interfaceId",
          "type": "bytes4"
        }
      ],
      "name": "supportsInterface",
      "outputs": [
        {
          "internalType": "bool",
          "name": "",
          "type": "bool"
        }
      ],
      "stateMutability": "view",
      "type": "function",
      "constant": true
    },
    {
      "inputs": [
        {
          "internalType": "address",
          "name": "newOwner",
          "type": "address"
        }
      ],
      "name": "transferOwnership",
      "outputs": [],
      "stateMutability": "nonpayable",
      "type": "function"
    },
    {
      "inputs": [
        {
          "internalType": "uint256",
          "name": "_tokenId",
          "type": "uint256"
        }
      ],
      "name": "uri",
      "outputs": [
        {
          "internalType": "string",
          "name": "",
          "type": "string"
        }
      ],
      "stateMutability": "view",
      "type": "function",
      "constant": true
    }
  ],
  "bytecode": "0x60806040523480156200001157600080fd5b5060405162003e8938038062003e8983398181016040528101906200003791906200084f565b8262000049816200011960201b60201c565b506200006a6200005e6200013560201b60201c565b6200013d60201b60201c565b6200007c82826200020360201b60201c565b620000a18460006001604051806020016040528060008152506200024f60201b60201c565b620000c68460016003604051806020016040528060008152506200024f60201b60201c565b620000ea84600280604051806020016040528060008152506200024f60201b60201c565b6200010f8460036014604051806020016040528060008152506200024f60201b60201c565b5050505062000f86565b806002908051906020019062000131929190620006e8565b5050565b600033905090565b6000600360009054906101000a900473ffffffffffffffffffffffffffffffffffffffff16905081600360006101000a81548173ffffffffffffffffffffffffffffffffffffffff021916908373ffffffffffffffffffffffffffffffffffffffff1602179055508173ffffffffffffffffffffffffffffffffffffffff168173ffffffffffffffffffffffffffffffffffffffff167f8be0079c531659141344cd1fd0a4f28419497f9722a3daafe3b4186f6b6457e060405160405180910390a35050565b81600460006101000a81548173ffffffffffffffffffffffffffffffffffffffff021916908373ffffffffffffffffffffffffffffffffffffffff160217905550806005819055505050565b600073ffffffffffffffffffffffffffffffffffffffff168473ffffffffffffffffffffffffffffffffffffffff161415620002c2576040517f08c379a0000000000000000000000000000000000000000000000000000000008152600401620002b99062000ba8565b60405180910390fd5b6000620002d46200013560201b60201c565b90506200030d81600087620002ef886200041460201b60201c565b62000300886200041460201b60201c565b87620004dd60201b60201c565b8260008086815260200190815260200160002060008773ffffffffffffffffffffffffffffffffffffffff1673ffffffffffffffffffffffffffffffffffffffff16815260200190815260200160002060008282546200036e919062000c96565b925050819055508473ffffffffffffffffffffffffffffffffffffffff16600073ffffffffffffffffffffffffffffffffffffffff168273ffffffffffffffffffffffffffffffffffffffff167fc3d58168c5ae7397731d063d5bbf3d657854427343f4c083240f7aacaa2d0f628787604051620003ee92919062000bca565b60405180910390a46200040d81600087878787620004e560201b60201c565b5050505050565b60606000600167ffffffffffffffff8111156200045a577f4e487b7100000000000000000000000000000000000000000000000000000000600052604160045260246000fd5b604051908082528060200260200182016040528015620004895781602001602082028036833780820191505090505b5090508281600081518110620004c8577f4e487b7100000000000000000000000000000000000000000000000000000000600052603260045260246000fd5b60200260200101818152505080915050919050565b505050505050565b620005118473ffffffffffffffffffffffffffffffffffffffff16620006d560201b62000b361760201c565b15620006cd578373ffffffffffffffffffffffffffffffffffffffff1663f23a6e6187878686866040518663ffffffff1660e01b81526004016200055a95949392919062000adc565b602060405180830381600087803b1580156200057557600080fd5b505af1925050508015620005a957506040513d601f19601f82011682018060405250810190620005a69190620008d4565b60015b6200064157620005b862000e74565b80620005c5575062000604565b806040517f08c379a0000000000000000000000000000000000000000000000000000000008152600401620005fb919062000b40565b60405180910390fd5b6040517f08c379a0000000000000000000000000000000000000000000000000000000008152600401620006389062000b64565b60405180910390fd5b63f23a6e6160e01b7bffffffffffffffffffffffffffffffffffffffffffffffffffffffff1916817bffffffffffffffffffffffffffffffffffffffffffffffffffffffff191614620006cb576040517f08c379a0000000000000000000000000000000000000000000000000000000008152600401620006c29062000b86565b60405180910390fd5b505b505050505050565b600080823b905060008111915050919050565b828054620006f69062000d93565b90600052602060002090601f0160209004810192826200071a576000855562000766565b82601f106200073557805160ff191683800117855562000766565b8280016001018555821562000766579182015b828111156200076557825182559160200191906001019062000748565b5b50905062000775919062000779565b5090565b5b80821115620007945760008160009055506001016200077a565b5090565b6000620007af620007a98462000c2b565b62000bf7565b905082815260208101848484011115620007c857600080fd5b620007d584828562000d5d565b509392505050565b600081519050620007ee8162000f38565b92915050565b600081519050620008058162000f52565b92915050565b600082601f8301126200081d57600080fd5b81516200082f84826020860162000798565b91505092915050565b600081519050620008498162000f6c565b92915050565b600080600080608085870312156200086657600080fd5b60006200087687828801620007dd565b945050602085015167ffffffffffffffff8111156200089457600080fd5b620008a2878288016200080b565b9350506040620008b587828801620007dd565b9250506060620008c88782880162000838565b91505092959194509250565b600060208284031215620008e757600080fd5b6000620008f784828501620007f4565b91505092915050565b6200090b8162000cf3565b82525050565b60006200091e8262000c5e565b6200092a818562000c74565b93506200093c81856020860162000d5d565b620009478162000e56565b840191505092915050565b60006200095f8262000c69565b6200096b818562000c85565b93506200097d81856020860162000d5d565b620009888162000e56565b840191505092915050565b6000620009a260348362000c85565b91507f455243313135353a207472616e7366657220746f206e6f6e204552433131353560008301527f526563656976657220696d706c656d656e7465720000000000000000000000006020830152604082019050919050565b600062000a0a60288362000c85565b91507f455243313135353a204552433131353552656365697665722072656a6563746560008301527f6420746f6b656e730000000000000000000000000000000000000000000000006020830152604082019050919050565b600062000a7260218362000c85565b91507f455243313135353a206d696e7420746f20746865207a65726f2061646472657360008301527f73000000000000000000000000000000000000000000000000000000000000006020830152604082019050919050565b62000ad68162000d53565b82525050565b600060a08201905062000af3600083018862000900565b62000b02602083018762000900565b62000b11604083018662000acb565b62000b20606083018562000acb565b818103608083015262000b34818462000911565b90509695505050505050565b6000602082019050818103600083015262000b5c818462000952565b905092915050565b6000602082019050818103600083015262000b7f8162000993565b9050919050565b6000602082019050818103600083015262000ba181620009fb565b9050919050565b6000602082019050818103600083015262000bc38162000a63565b9050919050565b600060408201905062000be1600083018562000acb565b62000bf0602083018462000acb565b9392505050565b6000604051905081810181811067ffffffffffffffff8211171562000c215762000c2062000e27565b5b8060405250919050565b600067ffffffffffffffff82111562000c495762000c4862000e27565b5b601f19601f8301169050602081019050919050565b600081519050919050565b600081519050919050565b600082825260208201905092915050565b600082825260208201905092915050565b600062000ca38262000d53565b915062000cb08362000d53565b9250827fffffffffffffffffffffffffffffffffffffffffffffffffffffffffffffffff0382111562000ce85762000ce762000dc9565b5b828201905092915050565b600062000d008262000d33565b9050919050565b60007fffffffff0000000000000000000000000000000000000000000000000000000082169050919050565b600073ffffffffffffffffffffffffffffffffffffffff82169050919050565b6000819050919050565b60005b8381101562000d7d57808201518184015260208101905062000d60565b8381111562000d8d576000848401525b50505050565b6000600282049050600182168062000dac57607f821691505b6020821081141562000dc35762000dc262000df8565b5b50919050565b7f4e487b7100000000000000000000000000000000000000000000000000000000600052601160045260246000fd5b7f4e487b7100000000000000000000000000000000000000000000000000000000600052602260045260246000fd5b7f4e487b7100000000000000000000000000000000000000000000000000000000600052604160045260246000fd5b6000601f19601f8301169050919050565b60008160e01c9050919050565b600060443d101562000e865762000f35565b60046000803e62000e9960005162000e67565b6308c379a0811462000eac575062000f35565b60405160043d036004823e80513d602482011167ffffffffffffffff8211171562000eda5750505062000f35565b808201805167ffffffffffffffff81111562000efb57505050505062000f35565b8060208301013d850181111562000f185750505050505062000f35565b62000f238262000e56565b60208401016040528296505050505050505b90565b62000f438162000cf3565b811462000f4f57600080fd5b50565b62000f5d8162000d07565b811462000f6957600080fd5b50565b62000f778162000d53565b811462000f8357600080fd5b50565b612ef38062000f966000396000f3fe608060405234801561001057600080fd5b50600436106101155760003560e01c80639f67756d116100a2578063d313d2e411610071578063d313d2e4146102e3578063e15e75e614610301578063e985e9c51461031f578063f242432a1461034f578063f2fde38b1461036b57610115565b80639f67756d1461026d578063a22cb4651461028b578063ad2f852a146102a7578063b00297f4146102c557610115565b80632eb2c2d6116100e95780632eb2c2d6146101db5780634e1273f4146101f75780636ebb702114610227578063715018a6146102455780638da5cb5b1461024f57610115565b8062fdd58e1461011a57806301ffc9a71461014a5780630e89341c1461017a5780632a55205a146101aa575b600080fd5b610134600480360381019061012f9190611dd7565b610387565b6040516101419190612942565b60405180910390f35b610164600480360381019061015f9190611e7f565b610450565b6040516101719190612785565b60405180910390f35b610194600480360381019061018f9190611ed1565b610532565b6040516101a191906127a0565b60405180910390f35b6101c460048036038101906101bf9190611efa565b610563565b6040516101d2929190612703565b60405180910390f35b6101f560048036038101906101f09190611c4d565b6105af565b005b610211600480360381019061020c9190611e13565b610650565b60405161021e919061272c565b60405180910390f35b61022f610801565b60405161023c9190612942565b60405180910390f35b61024d610806565b005b61025761088e565b6040516102649190612626565b60405180910390f35b6102756108b8565b6040516102829190612942565b60405180910390f35b6102a560048036038101906102a09190611d9b565b6108be565b005b6102af6108d4565b6040516102bc9190612626565b60405180910390f35b6102cd6108fa565b6040516102da9190612942565b60405180910390f35b6102eb6108ff565b6040516102f89190612942565b60405180910390f35b610309610904565b6040516103169190612942565b60405180910390f35b61033960048036038101906103349190611c11565b610909565b6040516103469190612785565b60405180910390f35b61036960048036038101906103649190611d0c565b61099d565b005b61038560048036038101906103809190611be8565b610a3e565b005b60008073ffffffffffffffffffffffffffffffffffffffff168373ffffffffffffffffffffffffffffffffffffffff1614156103f8576040517f08c379a00000000000000000000000000000000000000000000000000000000081526004016103ef90612802565b60405180910390fd5b60008083815260200190815260200160002060008473ffffffffffffffffffffffffffffffffffffffff1673ffffffffffffffffffffffffffffffffffffffff16815260200190815260200160002054905092915050565b60007fd9b67a26000000000000000000000000000000000000000000000000000000007bffffffffffffffffffffffffffffffffffffffffffffffffffffffff1916827bffffffffffffffffffffffffffffffffffffffffffffffffffffffff1916148061051b57507f0e89341c000000000000000000000000000000000000000000000000000000007bffffffffffffffffffffffffffffffffffffffffffffffffffffffff1916827bffffffffffffffffffffffffffffffffffffffffffffffffffffffff1916145b8061052b575061052a82610b49565b5b9050919050565b606061053d82610bb3565b60405160200161054d91906125f9565b6040516020818303038152906040529050919050565b600080600460009054906101000a900473ffffffffffffffffffffffffffffffffffffffff1691506127106005548461059c9190612b42565b6105a69190612b11565b90509250929050565b6105b7610d60565b73ffffffffffffffffffffffffffffffffffffffff168573ffffffffffffffffffffffffffffffffffffffff1614806105fd57506105fc856105f7610d60565b610909565b5b61063c576040517f08c379a000000000000000000000000000000000000000000000000000000000815260040161063390612882565b60405180910390fd5b6106498585858585610d68565b5050505050565b60608151835114610696576040517f08c379a000000000000000000000000000000000000000000000000000000000815260040161068d90612902565b60405180910390fd5b6000835167ffffffffffffffff8111156106d9577f4e487b7100000000000000000000000000000000000000000000000000000000600052604160045260246000fd5b6040519080825280602002602001820160405280156107075781602001602082028036833780820191505090505b50905060005b84518110156107f6576107a0858281518110610752577f4e487b7100000000000000000000000000000000000000000000000000000000600052603260045260246000fd5b6020026020010151858381518110610793577f4e487b7100000000000000000000000000000000000000000000000000000000600052603260045260246000fd5b6020026020010151610387565b8282815181106107d9577f4e487b7100000000000000000000000000000000000000000000000000000000600052603260045260246000fd5b602002602001018181525050806107ef90612c86565b905061070d565b508091505092915050565b600281565b61080e610d60565b73ffffffffffffffffffffffffffffffffffffffff1661082c61088e565b73ffffffffffffffffffffffffffffffffffffffff1614610882576040517f08c379a0000000000000000000000000000000000000000000000000000000008152600401610879906128c2565b60405180910390fd5b61088c60006110c8565b565b6000600360009054906101000a900473ffffffffffffffffffffffffffffffffffffffff16905090565b60055481565b6108d06108c9610d60565b838361118e565b5050565b600460009054906101000a900473ffffffffffffffffffffffffffffffffffffffff1681565b600081565b600381565b600181565b6000600160008473ffffffffffffffffffffffffffffffffffffffff1673ffffffffffffffffffffffffffffffffffffffff16815260200190815260200160002060008373ffffffffffffffffffffffffffffffffffffffff1673ffffffffffffffffffffffffffffffffffffffff16815260200190815260200160002060009054906101000a900460ff16905092915050565b6109a5610d60565b73ffffffffffffffffffffffffffffffffffffffff168573ffffffffffffffffffffffffffffffffffffffff1614806109eb57506109ea856109e5610d60565b610909565b5b610a2a576040517f08c379a0000000000000000000000000000000000000000000000000000000008152600401610a2190612842565b60405180910390fd5b610a3785858585856112fb565b5050505050565b610a46610d60565b73ffffffffffffffffffffffffffffffffffffffff16610a6461088e565b73ffffffffffffffffffffffffffffffffffffffff1614610aba576040517f08c379a0000000000000000000000000000000000000000000000000000000008152600401610ab1906128c2565b60405180910390fd5b600073ffffffffffffffffffffffffffffffffffffffff168173ffffffffffffffffffffffffffffffffffffffff161415610b2a576040517f08c379a0000000000000000000000000000000000000000000000000000000008152600401610b2190612822565b60405180910390fd5b610b33816110c8565b50565b600080823b905060008111915050919050565b60007f01ffc9a7000000000000000000000000000000000000000000000000000000007bffffffffffffffffffffffffffffffffffffffffffffffffffffffff1916827bffffffffffffffffffffffffffffffffffffffffffffffffffffffff1916149050919050565b60606000821415610bfb576040518060400160405280600181526020017f30000000000000000000000000000000000000000000000000000000000000008152509050610d5b565b600082905060005b60008214610c2d578080610c1690612c86565b915050600a82610c269190612b11565b9150610c03565b60008167ffffffffffffffff811115610c6f577f4e487b7100000000000000000000000000000000000000000000000000000000600052604160045260246000fd5b6040519080825280601f01601f191660200182016040528015610ca15781602001600182028036833780820191505090505b5090505b60008514610d5457600182610cba9190612b9c565b9150600a85610cc99190612ccf565b6030610cd59190612abb565b60f81b818381518110610d11577f4e487b7100000000000000000000000000000000000000000000000000000000600052603260045260246000fd5b60200101907effffffffffffffffffffffffffffffffffffffffffffffffffffffffffffff1916908160001a905350600a85610d4d9190612b11565b9450610ca5565b8093505050505b919050565b600033905090565b8151835114610dac576040517f08c379a0000000000000000000000000000000000000000000000000000000008152600401610da390612922565b60405180910390fd5b600073ffffffffffffffffffffffffffffffffffffffff168473ffffffffffffffffffffffffffffffffffffffff161415610e1c576040517f08c379a0000000000000000000000000000000000000000000000000000000008152600401610e1390612862565b60405180910390fd5b6000610e26610d60565b9050610e3681878787878761157d565b60005b8451811015611033576000858281518110610e7d577f4e487b7100000000000000000000000000000000000000000000000000000000600052603260045260246000fd5b602002602001015190506000858381518110610ec2577f4e487b7100000000000000000000000000000000000000000000000000000000600052603260045260246000fd5b60200260200101519050600080600084815260200190815260200160002060008b73ffffffffffffffffffffffffffffffffffffffff1673ffffffffffffffffffffffffffffffffffffffff16815260200190815260200160002054905081811015610f63576040517f08c379a0000000000000000000000000000000000000000000000000000000008152600401610f5a906128a2565b60405180910390fd5b81810360008085815260200190815260200160002060008c73ffffffffffffffffffffffffffffffffffffffff1673ffffffffffffffffffffffffffffffffffffffff168152602001908152602001600020819055508160008085815260200190815260200160002060008b73ffffffffffffffffffffffffffffffffffffffff1673ffffffffffffffffffffffffffffffffffffffff16815260200190815260200160002060008282546110189190612abb565b925050819055505050508061102c90612c86565b9050610e39565b508473ffffffffffffffffffffffffffffffffffffffff168673ffffffffffffffffffffffffffffffffffffffff168273ffffffffffffffffffffffffffffffffffffffff167f4a39dc06d4c0dbc64b70af90fd698a233a518aa5d07e595d983b8c0526c8f7fb87876040516110aa92919061274e565b60405180910390a46110c0818787878787611585565b505050505050565b6000600360009054906101000a900473ffffffffffffffffffffffffffffffffffffffff16905081600360006101000a81548173ffffffffffffffffffffffffffffffffffffffff021916908373ffffffffffffffffffffffffffffffffffffffff1602179055508173ffffffffffffffffffffffffffffffffffffffff168173ffffffffffffffffffffffffffffffffffffffff167f8be0079c531659141344cd1fd0a4f28419497f9722a3daafe3b4186f6b6457e060405160405180910390a35050565b8173ffffffffffffffffffffffffffffffffffffffff168373ffffffffffffffffffffffffffffffffffffffff1614156111fd576040517f08c379a00000000000000000000000000000000000000000000000000000000081526004016111f4906128e2565b60405180910390fd5b80600160008573ffffffffffffffffffffffffffffffffffffffff1673ffffffffffffffffffffffffffffffffffffffff16815260200190815260200160002060008473ffffffffffffffffffffffffffffffffffffffff1673ffffffffffffffffffffffffffffffffffffffff16815260200190815260200160002060006101000a81548160ff0219169083151502179055508173ffffffffffffffffffffffffffffffffffffffff168373ffffffffffffffffffffffffffffffffffffffff167f17307eab39ab6107e8899845ad3d59bd9653f200f220920489ca2b5937696c31836040516112ee9190612785565b60405180910390a3505050565b600073ffffffffffffffffffffffffffffffffffffffff168473ffffffffffffffffffffffffffffffffffffffff16141561136b576040517f08c379a000000000000000000000000000000000000000000000000000000000815260040161136290612862565b60405180910390fd5b6000611375610d60565b905061139581878761138688611755565b61138f88611755565b8761157d565b600080600086815260200190815260200160002060008873ffffffffffffffffffffffffffffffffffffffff1673ffffffffffffffffffffffffffffffffffffffff1681526020019081526020016000205490508381101561142c576040517f08c379a0000000000000000000000000000000000000000000000000000000008152600401611423906128a2565b60405180910390fd5b83810360008087815260200190815260200160002060008973ffffffffffffffffffffffffffffffffffffffff1673ffffffffffffffffffffffffffffffffffffffff168152602001908152602001600020819055508360008087815260200190815260200160002060008873ffffffffffffffffffffffffffffffffffffffff1673ffffffffffffffffffffffffffffffffffffffff16815260200190815260200160002060008282546114e19190612abb565b925050819055508573ffffffffffffffffffffffffffffffffffffffff168773ffffffffffffffffffffffffffffffffffffffff168373ffffffffffffffffffffffffffffffffffffffff167fc3d58168c5ae7397731d063d5bbf3d657854427343f4c083240f7aacaa2d0f62888860405161155e92919061295d565b60405180910390a461157482888888888861181b565b50505050505050565b505050505050565b6115a48473ffffffffffffffffffffffffffffffffffffffff16610b36565b1561174d578373ffffffffffffffffffffffffffffffffffffffff1663bc197c8187878686866040518663ffffffff1660e01b81526004016115ea959493929190612641565b602060405180830381600087803b15801561160457600080fd5b505af192505050801561163557506040513d601f19601f820116820180604052508101906116329190611ea8565b60015b6116c457611641612dab565b8061164c5750611689565b806040517f08c379a000000000000000000000000000000000000000000000000000000000815260040161168091906127a0565b60405180910390fd5b6040517f08c379a00000000000000000000000000000000000000000000000000000000081526004016116bb906127c2565b60405180910390fd5b63bc197c8160e01b7bffffffffffffffffffffffffffffffffffffffffffffffffffffffff1916817bffffffffffffffffffffffffffffffffffffffffffffffffffffffff19161461174b576040517f08c379a0000000000000000000000000000000000000000000000000000000008152600401611742906127e2565b60405180910390fd5b505b505050505050565b60606000600167ffffffffffffffff81111561179a577f4e487b7100000000000000000000000000000000000000000000000000000000600052604160045260246000fd5b6040519080825280602002602001820160405280156117c85781602001602082028036833780820191505090505b5090508281600081518110611806577f4e487b7100000000000000000000000000000000000000000000000000000000600052603260045260246000fd5b60200260200101818152505080915050919050565b61183a8473ffffffffffffffffffffffffffffffffffffffff16610b36565b156119e3578373ffffffffffffffffffffffffffffffffffffffff1663f23a6e6187878686866040518663ffffffff1660e01b81526004016118809594939291906126a9565b602060405180830381600087803b15801561189a57600080fd5b505af19250505080156118cb57506040513d601f19601f820116820180604052508101906118c89190611ea8565b60015b61195a576118d7612dab565b806118e2575061191f565b806040517f08c379a000000000000000000000000000000000000000000000000000000000815260040161191691906127a0565b60405180910390fd5b6040517f08c379a0000000000000000000000000000000000000000000000000000000008152600401611951906127c2565b60405180910390fd5b63f23a6e6160e01b7bffffffffffffffffffffffffffffffffffffffffffffffffffffffff1916817bffffffffffffffffffffffffffffffffffffffffffffffffffffffff1916146119e1576040517f08c379a00000000000000000000000000000000000000000000000000000000081526004016119d8906127e2565b60405180910390fd5b505b505050505050565b60006119fe6119f9846129b7565b612986565b90508083825260208201905082856020860282011115611a1d57600080fd5b60005b85811015611a4d5781611a338882611b01565b845260208401935060208301925050600181019050611a20565b5050509392505050565b6000611a6a611a65846129e3565b612986565b90508083825260208201905082856020860282011115611a8957600080fd5b60005b85811015611ab95781611a9f8882611bd3565b845260208401935060208301925050600181019050611a8c565b5050509392505050565b6000611ad6611ad184612a0f565b612986565b905082815260208101848484011115611aee57600080fd5b611af9848285612c44565b509392505050565b600081359050611b1081612e61565b92915050565b600082601f830112611b2757600080fd5b8135611b378482602086016119eb565b91505092915050565b600082601f830112611b5157600080fd5b8135611b61848260208601611a57565b91505092915050565b600081359050611b7981612e78565b92915050565b600081359050611b8e81612e8f565b92915050565b600081519050611ba381612e8f565b92915050565b600082601f830112611bba57600080fd5b8135611bca848260208601611ac3565b91505092915050565b600081359050611be281612ea6565b92915050565b600060208284031215611bfa57600080fd5b6000611c0884828501611b01565b91505092915050565b60008060408385031215611c2457600080fd5b6000611c3285828601611b01565b9250506020611c4385828601611b01565b9150509250929050565b600080600080600060a08688031215611c6557600080fd5b6000611c7388828901611b01565b9550506020611c8488828901611b01565b945050604086013567ffffffffffffffff811115611ca157600080fd5b611cad88828901611b40565b935050606086013567ffffffffffffffff811115611cca57600080fd5b611cd688828901611b40565b925050608086013567ffffffffffffffff811115611cf357600080fd5b611cff88828901611ba9565b9150509295509295909350565b600080600080600060a08688031215611d2457600080fd5b6000611d3288828901611b01565b9550506020611d4388828901611b01565b9450506040611d5488828901611bd3565b9350506060611d6588828901611bd3565b925050608086013567ffffffffffffffff811115611d8257600080fd5b611d8e88828901611ba9565b9150509295509295909350565b60008060408385031215611dae57600080fd5b6000611dbc85828601611b01565b9250506020611dcd85828601611b6a565b9150509250929050565b60008060408385031215611dea57600080fd5b6000611df885828601611b01565b9250506020611e0985828601611bd3565b9150509250929050565b60008060408385031215611e2657600080fd5b600083013567ffffffffffffffff811115611e4057600080fd5b611e4c85828601611b16565b925050602083013567ffffffffffffffff811115611e6957600080fd5b611e7585828601611b40565b9150509250929050565b600060208284031215611e9157600080fd5b6000611e9f84828501611b7f565b91505092915050565b600060208284031215611eba57600080fd5b6000611ec884828501611b94565b91505092915050565b600060208284031215611ee357600080fd5b6000611ef184828501611bd3565b91505092915050565b60008060408385031215611f0d57600080fd5b6000611f1b85828601611bd3565b9250506020611f2c85828601611bd3565b9150509250929050565b6000611f4283836125db565b60208301905092915050565b611f5781612bd0565b82525050565b6000611f6882612a4f565b611f728185612a7d565b9350611f7d83612a3f565b8060005b83811015611fae578151611f958882611f36565b9750611fa083612a70565b925050600181019050611f81565b5085935050505092915050565b611fc481612be2565b82525050565b6000611fd582612a5a565b611fdf8185612a8e565b9350611fef818560208601612c53565b611ff881612d8d565b840191505092915050565b600061200e82612a65565b6120188185612a9f565b9350612028818560208601612c53565b61203181612d8d565b840191505092915050565b600061204782612a65565b6120518185612ab0565b9350612061818560208601612c53565b80840191505092915050565b600061207a603483612a9f565b91507f455243313135353a207472616e7366657220746f206e6f6e204552433131353560008301527f526563656976657220696d706c656d656e7465720000000000000000000000006020830152604082019050919050565b60006120e0602883612a9f565b91507f455243313135353a204552433131353552656365697665722072656a6563746560008301527f6420746f6b656e730000000000000000000000000000000000000000000000006020830152604082019050919050565b6000612146605383612ab0565b91507f68747470733a2f2f62616679626569626d3565796c6e717375733762706d693360008301527f33646c7373776d766c6d66633367626c3776666a6a366f6562696c693435346960208301527f706e692e697066732e647765622e6c696e6b2f000000000000000000000000006040830152605382019050919050565b60006121d2602b83612a9f565b91507f455243313135353a2062616c616e636520717565727920666f7220746865207a60008301527f65726f20616464726573730000000000000000000000000000000000000000006020830152604082019050919050565b6000612238602683612a9f565b91507f4f776e61626c653a206e6577206f776e657220697320746865207a65726f206160008301527f64647265737300000000000000000000000000000000000000000000000000006020830152604082019050919050565b600061229e602983612a9f565b91507f455243313135353a2063616c6c6572206973206e6f74206f776e6572206e6f7260008301527f20617070726f76656400000000000000000000000000000000000000000000006020830152604082019050919050565b6000612304602583612a9f565b91507f455243313135353a207472616e7366657220746f20746865207a65726f20616460008301527f64726573730000000000000000000000000000000000000000000000000000006020830152604082019050919050565b600061236a603283612a9f565b91507f455243313135353a207472616e736665722063616c6c6572206973206e6f742060008301527f6f776e6572206e6f7220617070726f76656400000000000000000000000000006020830152604082019050919050565b60006123d0602a83612a9f565b91507f455243313135353a20696e73756666696369656e742062616c616e636520666f60008301527f72207472616e73666572000000000000000000000000000000000000000000006020830152604082019050919050565b6000612436600583612ab0565b91507f2e6a736f6e0000000000000000000000000000000000000000000000000000006000830152600582019050919050565b6000612476602083612a9f565b91507f4f776e61626c653a2063616c6c6572206973206e6f7420746865206f776e65726000830152602082019050919050565b60006124b6602983612a9f565b91507f455243313135353a2073657474696e6720617070726f76616c2073746174757360008301527f20666f722073656c6600000000000000000000000000000000000000000000006020830152604082019050919050565b600061251c602983612a9f565b91507f455243313135353a206163636f756e747320616e6420696473206c656e67746860008301527f206d69736d6174636800000000000000000000000000000000000000000000006020830152604082019050919050565b6000612582602883612a9f565b91507f455243313135353a2069647320616e6420616d6f756e7473206c656e6774682060008301527f6d69736d617463680000000000000000000000000000000000000000000000006020830152604082019050919050565b6125e481612c3a565b82525050565b6125f381612c3a565b82525050565b600061260482612139565b9150612610828461203c565b915061261b82612429565b915081905092915050565b600060208201905061263b6000830184611f4e565b92915050565b600060a0820190506126566000830188611f4e565b6126636020830187611f4e565b81810360408301526126758186611f5d565b905081810360608301526126898185611f5d565b9050818103608083015261269d8184611fca565b90509695505050505050565b600060a0820190506126be6000830188611f4e565b6126cb6020830187611f4e565b6126d860408301866125ea565b6126e560608301856125ea565b81810360808301526126f78184611fca565b90509695505050505050565b60006040820190506127186000830185611f4e565b61272560208301846125ea565b9392505050565b600060208201905081810360008301526127468184611f5d565b905092915050565b600060408201905081810360008301526127688185611f5d565b9050818103602083015261277c8184611f5d565b90509392505050565b600060208201905061279a6000830184611fbb565b92915050565b600060208201905081810360008301526127ba8184612003565b905092915050565b600060208201905081810360008301526127db8161206d565b9050919050565b600060208201905081810360008301526127fb816120d3565b9050919050565b6000602082019050818103600083015261281b816121c5565b9050919050565b6000602082019050818103600083015261283b8161222b565b9050919050565b6000602082019050818103600083015261285b81612291565b9050919050565b6000602082019050818103600083015261287b816122f7565b9050919050565b6000602082019050818103600083015261289b8161235d565b9050919050565b600060208201905081810360008301526128bb816123c3565b9050919050565b600060208201905081810360008301526128db81612469565b9050919050565b600060208201905081810360008301526128fb816124a9565b9050919050565b6000602082019050818103600083015261291b8161250f565b9050919050565b6000602082019050818103600083015261293b81612575565b9050919050565b600060208201905061295760008301846125ea565b92915050565b600060408201905061297260008301856125ea565b61297f60208301846125ea565b9392505050565b6000604051905081810181811067ffffffffffffffff821117156129ad576129ac612d5e565b5b8060405250919050565b600067ffffffffffffffff8211156129d2576129d1612d5e565b5b602082029050602081019050919050565b600067ffffffffffffffff8211156129fe576129fd612d5e565b5b602082029050602081019050919050565b600067ffffffffffffffff821115612a2a57612a29612d5e565b5b601f19601f8301169050602081019050919050565b6000819050602082019050919050565b600081519050919050565b600081519050919050565b600081519050919050565b6000602082019050919050565b600082825260208201905092915050565b600082825260208201905092915050565b600082825260208201905092915050565b600081905092915050565b6000612ac682612c3a565b9150612ad183612c3a565b9250827fffffffffffffffffffffffffffffffffffffffffffffffffffffffffffffffff03821115612b0657612b05612d00565b5b828201905092915050565b6000612b1c82612c3a565b9150612b2783612c3a565b925082612b3757612b36612d2f565b5b828204905092915050565b6000612b4d82612c3a565b9150612b5883612c3a565b9250817fffffffffffffffffffffffffffffffffffffffffffffffffffffffffffffffff0483118215151615612b9157612b90612d00565b5b828202905092915050565b6000612ba782612c3a565b9150612bb283612c3a565b925082821015612bc557612bc4612d00565b5b828203905092915050565b6000612bdb82612c1a565b9050919050565b60008115159050919050565b60007fffffffff0000000000000000000000000000000000000000000000000000000082169050919050565b600073ffffffffffffffffffffffffffffffffffffffff82169050919050565b6000819050919050565b82818337600083830152505050565b60005b83811015612c71578082015181840152602081019050612c56565b83811115612c80576000848401525b50505050565b6000612c9182612c3a565b91507fffffffffffffffffffffffffffffffffffffffffffffffffffffffffffffffff821415612cc457612cc3612d00565b5b600182019050919050565b6000612cda82612c3a565b9150612ce583612c3a565b925082612cf557612cf4612d2f565b5b828206905092915050565b7f4e487b7100000000000000000000000000000000000000000000000000000000600052601160045260246000fd5b7f4e487b7100000000000000000000000000000000000000000000000000000000600052601260045260246000fd5b7f4e487b7100000000000000000000000000000000000000000000000000000000600052604160045260246000fd5b6000601f19601f8301169050919050565b60008160e01c9050919050565b600060443d1015612dbb57612e5e565b60046000803e612dcc600051612d9e565b6308c379a08114612ddd5750612e5e565b60405160043d036004823e80513d602482011167ffffffffffffffff82111715612e0957505050612e5e565b808201805167ffffffffffffffff811115612e28575050505050612e5e565b8060208301013d8501811115612e4357505050505050612e5e565b612e4c82612d8d565b60208401016040528296505050505050505b90565b612e6a81612bd0565b8114612e7557600080fd5b50565b612e8181612be2565b8114612e8c57600080fd5b50565b612e9881612bee565b8114612ea357600080fd5b50565b612eaf81612c3a565b8114612eba57600080fd5b5056fea264697066735822122060991d6c94f6987f05c0344a648a74f863207dbb022baca3a2e922afdaf0202764736f6c63430008000033",
  "immutableReferences": {},
  "source": "// SPDX-License-Identifier: MIT\npragma solidity >=0.4.22 <0.9.0;\n\nimport \"@openzeppelin/contracts/token/ERC1155/ERC1155.sol\";\nimport \"@openzeppelin/contracts/access/Ownable.sol\";\nimport \"@openzeppelin/contracts/utils/Strings.sol\";\nimport \"@openzeppelin/contracts/utils/Counters.sol\";\nimport \"./ERC2981Collection.sol\";\n\ncontract Token is ERC1155, Ownable, ERC2981Collection {\n\n    // // CUSTOM FOR CUSTOMER\n    // uint256 public constant PENGUIN0 = 0;\n    // uint256 public constant PENGUIN1 = 1;\n    // uint256 public constant PENGUIN2 = 2;\n    // //\n\n    // NEAL EXAMPLE\n    uint256 public constant SERENA0 = 0;\n    uint256 public constant SERENA1 = 1;\n    uint256 public constant SERENA2 = 2;\n    uint256 public constant SERENA3 = 3;\n    //\n\n    constructor (\n        address _artist,\n        string memory _uriString,\n        address _royaltyAddress,\n        uint256 _royaltyPercent // 10000 = 100, 1000 = 10, 100 = 1\n    ) ERC1155 (\n        _uriString\n    ) {\n        _setRoyalties(_royaltyAddress, _royaltyPercent);\n\n        // // CUSTOM FOR CUSTOMER\n        // _mint(_artist, PENGUIN0, 1, \"\");\n        // _mint(_artist, PENGUIN1, 1, \"\");\n        // _mint(_artist, PENGUIN2, 1, \"\");\n        // //\n\n        // NEAL EXAMPLE\n        _mint(_artist, SERENA0, 1, \"\");\n        _mint(_artist, SERENA1, 3, \"\");\n        _mint(_artist, SERENA2, 2, \"\");\n        _mint(_artist, SERENA3, 20, \"\");\n        //\n    }\n    \n    // override uri - necessary for resale on OpenSea\n    function uri(uint256 _tokenId) public view virtual override returns (string memory) {\n        return string(\n            abi.encodePacked(\n                // Neal example\n                \"https://bafybeibm5eylnqsus7bpmi33dlsswmvlmfc3gbl7vfjj6oebili454ipni.ipfs.dweb.link/\",\n                Strings.toString(_tokenId),\n                \".json\"\n                )\n            );\n    }\n}",
  "sourcePath": "/Users/andrewmlevy/Documents/blockchain/4_portfolio_projects/mozis-app/src/contracts/Token.sol",
  "compiler": {
    "name": "solc",
    "version": "0.8.0+commit.c7dfd78e.Emscripten.clang"
  },
  "schemaVersion": "3.4.3",
  "updatedAt": "2021-12-03T16:15:09.902Z",
  "networkType": "ethereum",
  "devdoc": {
    "kind": "dev",
    "methods": {
      "balanceOf(address,uint256)": {
        "details": "See {IERC1155-balanceOf}. Requirements: - `account` cannot be the zero address."
      },
      "balanceOfBatch(address[],uint256[])": {
        "details": "See {IERC1155-balanceOfBatch}. Requirements: - `accounts` and `ids` must have the same length."
      },
      "isApprovedForAll(address,address)": {
        "details": "See {IERC1155-isApprovedForAll}."
      },
      "owner()": {
        "details": "Returns the address of the current owner."
      },
      "renounceOwnership()": {
        "details": "Leaves the contract without owner. It will not be possible to call `onlyOwner` functions anymore. Can only be called by the current owner. NOTE: Renouncing ownership will leave the contract without an owner, thereby removing any functionality that is only available to the owner."
      },
      "safeBatchTransferFrom(address,address,uint256[],uint256[],bytes)": {
        "details": "See {IERC1155-safeBatchTransferFrom}."
      },
      "safeTransferFrom(address,address,uint256,uint256,bytes)": {
        "details": "See {IERC1155-safeTransferFrom}."
      },
      "setApprovalForAll(address,bool)": {
        "details": "See {IERC1155-setApprovalForAll}."
      },
      "supportsInterface(bytes4)": {
        "details": "See {IERC165-supportsInterface}."
      },
      "transferOwnership(address)": {
        "details": "Transfers ownership of the contract to a new account (`newOwner`). Can only be called by the current owner."
      }
    },
    "version": 1
  },
  "userdoc": {
    "kind": "user",
    "methods": {},
    "version": 1
  }
}